:020000040000FA
:0400000027EF00F0F6
:020004000000FA
:080018009EBA01D01000ABA25A
:1000200005D0AB9800000000AB8803D0020EE82E8C
:10003000FED7F00EAE6006D0AE5000EE40F0EF52AC
:10004000402A1000AE5C100D406E00001000D38AF4
:10005000D38CD388B18EB19CB186B19AB198B1904E
:10006000A082A192A282D08EF28EF28C948C948E79
:10007000AC98B886AC84000EB06E130EAF6EAB8E2B
:100080009E889E9AAC8AAB889D989F989D8A9F9ADD
:10009000939093928A808A820A0E00EEF0F010EE1E
:1000A000E0F020EED0F0EE6AE66ADE6AE82EFBD7DA
:1000B000956A8C6A0A0E506E8A6A160EE82EFED772
:1000C0008A80A60EE82EFED7020E8A6EAE0E416E14
:1000D0000000150EE82EFED78A80A60EE82EFED769
:1000E000020E8A90456A446A476A466A486A060E62
:1000F000426E00EEF0F010EEE0F020EED0F0492A73
:100100000000110EE82EFED78A804950DE5C506454
:1001100014D0EE50140D0A0F456607D0456EE6CF99
:1001200044F0010EE82EFED707D0476EE6CF46F02A
:10013000445045244660465E05D00000040EE82E7B
:10014000FED70000422EE1D74450452446244724E0
:100150007108486E442A442EFED78C80452A452ECD
:10016000FED78C90462A462EFED78C80472A472EF3
:10017000FED78C90482A482EFED70000010EE82EAC
:10018000FED78A90456A446A476A466A486A060EFC
:10019000426E00EEF0F010EEE0F020EED0F0492AD2
:1001A0000000110EE82EFED78A804950DE5C5064B4
:1001B00014D0EE50140D0A0F456607D0456EE6CFF9
:1001C00044F0010EE82EFED707D0476EE6CF46F08A
:1001D000445045244660465E05D00000040EE82EDB
:1001E000FED70000422EE1D7445045244624472440
:1001F0007108486E442A442EFED78C80452A452E2D
:10020000FED78C90462A462EFED78C80472A472E52
:10021000FED78C90482A482EFED70000010EE82E0B
:10022000FED78A90456A446A476A466A486A060E5B
:10023000426E00EEF0F010EEE0F020EED0F0492A31
:100240000000110EE82EFED78A804950DE5C506413
:1002500014D0EE50140D0A0F456607D0456EE6CF58
:1002600044F0010EE82EFED707D0476EE6CF46F0E9
:10027000445045244660465E05D00000040EE82E3A
:10028000FED70000422EE1D744504524462447249F
:100290007108486E442A442EFED78C80452A452E8C
:1002A000FED78C90462A462EFED78C80472A472EB2
:1002B000FED78C90482A482EFED70000412E11D739
:1002C0008A6A150EE82EFED7496A000000008A806F
:0C02D000A50EE82EFED700000000EED6C0
:020000040030CA
:0100010002FC
:010002001FDE
:010003001EDE
:010005008179
:010006008178
:00000001FF
