:020000040000FA
:0400000007EF00F016
:10000800158209ED00F078EF00F00600D9CF13F063
:10001800DACF14F09EAC13EF00F015EF00F038EFD4
:1000280000F0D8901134D96E1234DA6E010ED92648
:10003800000EDA22C3CFDEFFC4CFDDFF114A122A39
:10004800080E11181210D8A42CEF00F02EEF00F0B3
:1000580035EF00F000F0000E126E000E116E35EF55
:1000680000F09E9C4AEF00F0A1A03DEF00F03FEFAA
:1000780000F04AEF00F0000EB36E000EB26EA190D1
:100088004AEF00F04AEF00F04AEF00F014C0DAFF40
:1000980013C0D9FF15921100C29AC288C286C284C1
:1000A8009684C280CF0EC116C196C184C182C18018
:1000B800C050F80B0409C06EC050C70B0809C06EC9
:1000C800C08ED08EF28E1200D3508F0B4009D36EA3
:1000D800BA80BA82BA94BA86A190A080A2807A0E19
:1000E800BC6E120EBB6E120000EE01F0120EEE6A2C
:1000F800E806FDE115901592000183EF00F050EC41
:1001080000F068EC00F08DEC00F089EF00F007EFEC
:1001180000F0A192A082A282B19CB186CF0EB11646
:06012800B192B18012004B
:020000040020DA
:08000000FFFFFFFFFFFFFFFF00
:020000040030CA
:0E000000FF081F1EFF8381FF0FC00FE00F409F
:00000001FF
