:020000040000FA
:0400000007EF00F016
:100008001B82A3ED00F0E5EF01F0000E0A6E08BEBA
:1000180012EF00F010EF00F01EEF00F0081E071EB0
:10002800061E056C000E062207220822010E0A6E23
:100038001EEF00F004BE25EF00F023EF00F031EFD3
:1000480000F0041E031E021E016C000E0222032291
:100058000422010E0A1A31EF00F0000E0B6E000E9A
:100068000C6E000E0D6E000E0E6E05500610071079
:100078000810D8B442EF00F044EF00F086EF00F02B
:10008800010E096E50EF00F0D89005360636073697
:100098000836092A50EF00F008AE55EF00F057EF88
:1000A80000F048EF00F05BEF00F05BEF00F0D89055
:1000B8000B360C360D360E360550015C06500258CC
:1000C8000750035808500458D8A06DEF00F06FEFA0
:1000D80000F07AEF00F00550015E0650025A075012
:1000E800035A0850045A0B807AEF00F0D89008326F
:1000F800073206320532092E5BEF00F086EF00F07A
:1001080086EF00F00A50D8B48CEF00F08EEF00F0C4
:1001180098EF00F00E1E0D1E0C1E0B6C000E0C222C
:100128000D220E2298EF00F00BC001F00CC002F077
:100138000DC003F00EC004F0A2EF00F0120006009C
:10014800D9CF11F0DACF12F0A1A2ADEF00F0AFEFE6
:1001580000F0C1EF00F0A192134A142A19501318A5
:1001680007E11A501418D8A4BCEF00F0BEEF00F055
:10017800C1EF00F08C92C1EF00F09EA0C6EF00F036
:10018800C8EF00F01BEF01F0174A182ABE2AD890D2
:100198001534D96E1634DA6E000ED926020EDA221C
:1001A8001750DE1807E11850DE18D8A4DEEF00F06B
:1001B800E0EF00F006EF01F0000E186E000E176E6B
:1001C800154A162A240E016EF40E026E000E036EF6
:1001D800000E046ED8901534D96E1634DA6E000EFF
:1001E800D926010EDA22DECF05F0DDCF06F0000EAB
:1001F80006BEFF0E076E086E09EC00F00104CB6E18
:1002080006EF01F0610E15181610D8A40EEF01F0D4
:1002180010EF01F014EF01F0000E166E000E156ECF
:10022800F30ECF6ECA0ECE6E9E901BEF01F012C079
:10023800DAFF11C0D9FF1B9211003701F401370111
:10024800F4013701F4013701F4013701F4013701F2
:10025800F4013701F4017201F401F700F40115010A
:10026800F4013701F4014A01F4014A01F4014A0199
:10027800F4014A01F4014A01F4013701F40137019C
:10028800F4013701F4013701F4011501F4011501F6
:10029800F401F700F4011501F4017201F4013701CA
:1002A800F4013701F4013701F4013701F401370192
:1002B800F4013701F4013701F4017201F401F70088
:1002C800F4011501F4013701F4014A01F4014A016E
:1002D800F4014A01F4014A01F4014A01F401370129
:1002E800F4013701F4013701F4017201F4017201DC
:1002F800F4014A01F4011501F401F700F4010200C8
:1003080001000200010004000100020001000200D7
:1003180001000400010002000100020001000200C7
:1003280001000200010004000100020001000200B7
:1003380001000200010002000100020001000200A9
:100348000100020001000200010002000100020099
:100358000100020001000200010004000100040085
:100368000100020001000200010004000100020077
:100378000100020001000400010002000100020067
:100388000100020001000200010004000100020057
:100398000100020001000200010002000100020049
:1003A8000100020001000200010002000100020039
:1003B8000100020001000200010002000100080023
:1003C8000100060EF66E030EF76E000EF86E02EED2
:1003D80000F010EEC4F00900F5CFEEFFE550E15053
:1003E800FAE1420EF66E020EF76E000EF86E01EE9E
:1003F80000F010EEC4F00900F5CFEEFFE550E15033
:10040800FAE1980EF66E040EF76E000EF86E09000B
:10041800F5CF19F00900F5CF1AF0186A176A166AAD
:10042800156A146A136A1B901B9200011CEF02F0F4
:1004380095928C82D3508F0B4009D36EF28ED08E5A
:10044800000EBE6E9494CA84CA50FC0B0109CA6E91
:10045800BD50F00B0C09BD6E9D809E909F80CD8E87
:10046800CD80300ECD12CD92F30ECF6ECA0ECE6E69
:10047800B180B18E300EB112B192A082A192A28247
:10048800F00EB36EBD0EB26E48EF02F007EF00F04B
:02049800010061
:020000040020DA
:08000000FFFFFFFFFFFFFFFF00
:020000040030CA
:0E000000FF081F1EFF8181FF0FC00FE00F40A1
:00000001FF
