:020000040000FA
:040000003CEF00F0E1
:060008007E822BED0EF0DC
:100018007E80D8CF06F1E8CF07F1E0CF08F1D9CF3D
:1000280009F1DACF0AF19EAA1CEF00F01EEF00F0EA
:1000380030EF00F0ABA223EF00F025EF00F02AEF3D
:1000480000F0AB9800F0AB882AEF00F0B9EC22F092
:1000580030EF00F030EF00F00AC1DAFF09C1D9FF34
:1000680008C1E0FF07C1E8FF06C1D8FF7E90100075
:04007800D2EF21F0B2
:100600000025643A25642025640D00303A256420D5
:1006100025640D00686858006868640068686900AF
:1006200068686E0068686F006868750068687800C0
:100630007A58007A64007A69007A6E007A6F007ADC
:1006400075007A78000045C0D9FF46C0DAFFDECFDA
:10065000F6FFDDCFF7FF0800F550250AD8A433EFE9
:1006600003F035EF03F00BEF0EF045C0D9FF46C0A5
:10067000DAFFDE2A000EDD22000E0001CF6F000E31
:10068000CE6FCEC07CF0CFC07DF0D069D169000EB6
:10069000506E000E4F6EB5EF03F089EF03F07C80D3
:1006A00045C0D9FF46C0DAFFDE2A000EDD22B5EFD5
:1006B00003F07C8245C0D9FF46C0DAFFDE2A000E77
:1006C000DD22B5EF03F07C8445C0D9FF46C0DAFFD8
:1006D000DE2A000EDD22B5EF03F07C8645C0D9FF8F
:1006E00046C0DAFFDE2A000EDD22B5EF03F07C887B
:1006F00045C0D9FF46C0DAFFDE2A000EDD22B5EF85
:1007000003F0000E506E010E4F6EB5EF03F0B5EF23
:1007100003F045C0D9FF46C0DAFFDECFF6FFDDCFDC
:10072000F7FF0800F550496E4A6A4A50000AD8B4EB
:100730009CEF03F081EF03F04950200AD8B46DEF2D
:1007400003F0030AD8B477EF03F0080AD8B463EFD4
:1007500003F0060AD8B44FEF03F01D0AD8B459EFDE
:1007600003F081EF03F0B5EF03F04F505010D8B411
:10077000BCEF03F0BEEF03F089EF03F07CA0C3EF02
:1007800003F0C5EF03F0C8EF03F07C92C8EF03F06D
:1007900045C0D9FF46C0DAFFDECFF6FFDDCFF7FF59
:1007A0000800F5502A0AD8A4D8EF03F0DAEF03F0D6
:1007B00006EF04F045C0D9FF46C0DAFFDE2A000E7E
:1007C000DD2247C0D9FF48C0DAFFDFCF49F0020E73
:1007D000DE26DFCF4AF0000EDD2249C0D9FF4AC035
:1007E000DAFFDECFCEF0DDCFCFF00001CFBFFDEFDF
:1007F00003F0FBEF03F065EF04F07C80CE6DCF1FBC
:10080000D8B0CF2B65EF04F065EF04F045C0D9FFF9
:1008100046C0DAFFDECF08F0DDCF09F069EC15F055
:1008200008C0CEF009C0CFF01FEF04F045C0D9FFDB
:1008300046C0DAFFDE2A000EDD221FEF04F0D00EE4
:10084000496EFF0E4A6E45C0D9FF46C0DAFFDECFC3
:10085000F6FFDDCFF7FF0800F5504B6E4C6A4950AC
:100860004B264A504C224C500AE10A0E4B5CD8A051
:100870003CEF04F03FEF04F0010E40EF04F0000EF7
:10088000516E526A58EF04F045C0D9FF46C0DAFFF6
:10089000DECFF6FFDDCFF7FF0800F550016E026AEC
:1008A000C5EC23F001C051F002C052F058EF04F043
:1008B00051505210D8A45FEF04F061EF04F016EF2E
:1008C00004F065EF04F065EF04F045C0D9FF46C0C1
:1008D000DAFFDECFF6FFDDCFF7FF0800F5502E0A76
:1008E000D8A475EF04F077EF04F013EF05F0000ED5
:1008F0000001D16F000ED06F45C0D9FF46C0DAFFAE
:10090000DE2A000EDD2245C0D9FF46C0DAFFDECF69
:10091000F6FFDDCFF7FF0800F5502A0AD8A493EFC1
:1009200004F095EF04F0B2EF04F045C0D9FF46C0E3
:10093000DAFFDE2A000EDD2247C0D9FF48C0DAFF09
:10094000DFCF49F0020EDE26DFCF4AF0000EDD22B7
:1009500049C0D9FF4AC0DAFFDECFD0F0DDCFD1F0F9
:1009600013EF05F045C0D9FF46C0DAFFDECF08F02F
:10097000DDCF09F069EC15F008C0D0F009C0D1F066
:10098000CBEF04F045C0D9FF46C0DAFFDE2A000EE7
:10099000DD22CBEF04F0D00E496EFF0E4A6E45C04B
:1009A000D9FF46C0DAFFDECFF6FFDDCFF7FF080044
:1009B000F5504B6E4C6A49504B264A504C224C50D5
:1009C0000AE10A0E4B5CD8A0E8EF04F0EBEF04F06C
:1009D000010EECEF04F0000E536E546A04EF05F0C4
:1009E00045C0D9FF46C0DAFFDECFF6FFDDCFF7FF07
:1009F0000800F550016E026AC5EC23F001C053F007
:100A000002C054F004EF05F053505410D8A40BEF7B
:100A100005F00DEF05F0C2EF04F013EF05F013EF52
:100A200005F013EF05F045C0D9FF46C0DAFFDECF71
:100A3000F6FFDDCFF7FF0800F550630AD8A423EFD7
:100A400005F025EF05F04EEF05F045C0D9FF46C093
:100A5000DAFFDE2A000EDD2247C0D9FF48C0DAFFE8
:100A6000DFCF49F0020EDE26DFCF4AF0000EDD2296
:100A700049C0D9FF4AC0DAFFDF505F6E43C01CF0A7
:100A800044C01DF05FC01EF003EC22F01CC043F018
:100A90001DC044F02AEF0EF02AEF0EF045C0D9FF3A
:100AA00046C0DAFFDECF01F0DDCF02F0180E036E94
:100AB000060E046E000E066E030E056EB4EC1BF0FF
:100AC00001500210D8B467EF05F069EF05F086EF2A
:100AD00005F045C0D9FF46C0DAFFDECF01F0DDCF1B
:100AE00002F01C0E036E060E046E000E066E030E60
:100AF000056EB4EC1BF001500210D8A482EF05F093
:100B000084EF05F0C8EF05F086EF05F0030E45C051
:100B1000D9FF46C0DAFFDE26000EDD2247C0D9FF2E
:100B200048C0DAFFDFCF49F0020EDE26DFCF4AF001
:100B3000000EDD2249C0D9FF4AC0DAFFDF50556EF2
:100B4000000E55BEFF0E566E576E586E596E5A6E99
:100B50005B6E5C6E43C01CF044C01DF055C01EF0BF
:100B600056C01FF057C020F058C021F059C022F0E5
:100B70005AC023F05BC024F05CC025F0C3EC11F038
:100B80001CC043F01DC044F02AEF0EF02AEF0EF017
:100B900045C0D9FF46C0DAFFDECF01F0DDCF02F05D
:100BA000190E036E060E046E000E066E020E056E22
:100BB000B4EC1BF001500210D8B4E1EF05F0E3EF04
:100BC00005F000EF06F045C0D9FF46C0DAFFDECFE2
:100BD00001F0DDCF02F01D0E036E060E046E000E56
:100BE000066E020E056EB4EC1BF001500210D8A484
:100BF000FCEF05F0FEEF05F043EF06F000EF06F026
:100C0000020E45C0D9FF46C0DAFFDE26000EDD2207
:100C100047C0D9FF48C0DAFFDFCF49F0020EDE2619
:100C2000DFCF4AF0000EDD2249C0D9FF4AC0DAFF0B
:100C3000DECF55F0DDCF56F0000E56BEFF0E576EDC
:100C4000586E596E5A6E5B6E5C6E43C01CF044C0A9
:100C50001DF055C01EF056C01FF057C020F058C000
:100C600021F059C022F05AC023F05BC024F05CC0D0
:100C700025F0C3EC11F01CC043F01DC044F02AEF76
:100C80000EF02AEF0EF045C0D9FF46C0DAFFDECFE6
:100C9000F6FFDDCFF7FF0800F550640AD8B453EF34
:100CA00006F055EF06F069EF06F045C0D9FF46C0E3
:100CB000DAFFDECFF6FFDDCFF7FF0800F550690A57
:100CC000D8A465EF06F067EF06F0ABEF06F069EF2A
:100CD00006F045C0D9FF46C0DAFFDE2A000EDD224D
:100CE00047C0D9FF48C0DAFFDFCF49F0020EDE2649
:100CF000DFCF4AF0000EDD2249C0D9FF4AC0DAFF3B
:100D0000DECF55F0DDCF56F0000E56BEFF0E576E0B
:100D1000586E596E5A6E5B6E5C6E43C01CF044C0D8
:100D20001DF055C01EF056C01FF057C020F058C02F
:100D300021F059C022F05AC023F05BC024F05CC0FF
:100D400025F0C3EC11F01CC043F01DC044F02AEFA5
:100D50000EF02AEF0EF045C0D9FF46C0DAFFDECF15
:100D600001F0DDCF02F0330E036E060E046E000EAE
:100D7000066E020E056EB4EC1BF001500210D8B4E2
:100D8000C4EF06F0C6EF06F0E3EF06F045C0D9FF6A
:100D900046C0DAFFDECF01F0DDCF02F0360E036E83
:100DA000060E046E000E066E020E056EB4EC1BF00D
:100DB00001500210D8A4DFEF06F0E1EF06F027EFB4
:100DC00007F0E3EF06F0020E45C0D9FF46C0DAFF98
:100DD000DE26000EDD2247C0D9FF48C0DAFFDFCF94
:100DE00049F0020EDE26DFCF4AF0000EDD2249C0B8
:100DF000D9FF4AC0DAFFDECF4BF0DDCF4CF04BC05D
:100E000055F04CC056F0576A586A596A5A6A5B6A7C
:100E10005C6A43C01CF044C01DF055C01EF056C0B3
:100E20001FF057C020F058C021F059C022F05AC01E
:100E300023F05BC024F05CC025F0C3EC11F01CC0B3
:100E400043F01DC044F02AEF0EF02AEF0EF045C02B
:100E5000D9FF46C0DAFFDECF01F0DDCF02F0240E6D
:100E6000036E060E046E000E066E030E056EB4ECE5
:100E70001BF001500210D8A440EF07F042EF07F03A
:100E800083EF07F0030E45C0D9FF46C0DAFFDE2628
:100E9000000EDD2247C0D9FF48C0DAFFDFCF49F09E
:100EA000020EDE26DFCF4AF0000EDD2249C0D9FF58
:100EB0004AC0DAFFDF504B6E4B50606E616A626A67
:100EC000636A646A656A666A676A43C01CF044C004
:100ED0001DF060C01EF061C01FF062C020F063C052
:100EE00021F064C022F065C023F066C024F067C022
:100EF00025F062EC14F01CC043F01DC044F02AEF52
:100F00000EF02AEF0EF045C0D9FF46C0DAFFDECF63
:100F100001F0DDCF02F0250E036E060E046E000E0A
:100F2000066E020E056EB4EC1BF001500210D8A440
:100F30009CEF07F09EEF07F0E2EF07F0020E45C0CE
:100F4000D9FF46C0DAFFDE26000EDD2247C0D9FFFA
:100F500048C0DAFFDFCF49F0020EDE26DFCF4AF0CD
:100F6000000EDD2249C0D9FF4AC0DAFFDECF4BF0C8
:100F7000DDCF4CF04BC060F04CC061F0626A636A38
:100F8000646A656A666A676A43C01CF044C01DF003
:100F900060C01EF061C01FF062C020F063C021F08D
:100FA00064C022F065C023F066C024F067C025F05D
:100FB00062EC14F01CC043F01DC044F02AEF0EF0A8
:100FC0002AEF0EF045C0D9FF46C0DAFFDECFF6FFAC
:100FD000DDCFF7FF0800F5506F0AD8A4F2EF07F055
:100FE000F4EF07F037EF08F045C0D9FF46C0DAFF4D
:100FF000DE2A000EDD2247C0D9FF48C0DAFFDFCF6E
:1010000049F0020EDE26DFCF4AF0000EDD2249C095
:10101000D9FF4AC0DAFFDECF4BF0DDCF4CF04BC03A
:1010200060F04CC061F0626A636A646A656A666A0D
:10103000676A43C01CF044C01DF060C01EF061C070
:101040001FF062C020F063C021F064C022F065C0D0
:1010500023F066C024F067C025F062EC14F01CC0D9
:1010600043F01DC044F02AEF0EF02AEF0EF045C009
:10107000D9FF46C0DAFFDECF01F0DDCF02F03C0E33
:10108000036E060E046E000E066E020E056EB4ECC4
:101090001BF001500210D8A450EF08F052EF08F0F6
:1010A00096EF08F0020E45C0D9FF46C0DAFFDE26F3
:1010B000000EDD2247C0D9FF48C0DAFFDFCF49F07C
:1010C000020EDE26DFCF4AF0000EDD2249C0D9FF36
:1010D0004AC0DAFFDECF4BF0DDCF4CF04BC060F002
:1010E0004CC061F0626A636A646A656A666A676ACC
:1010F00043C01CF044C01DF060C01EF061C01FF072
:1011000062C020F063C021F064C022F065C023F00B
:1011100066C024F067C025F062EC14F01CC043F0F8
:101120001DC044F02AEF0EF02AEF0EF045C0D9FFA3
:1011300046C0DAFFDECF01F0DDCF02F0200E036EF5
:10114000060E046E000E066E030E056EB4EC1BF068
:1011500001500210D8A4AFEF08F0B1EF08F0DBEFB8
:1011600008F0030E45C0D9FF46C0DAFFDE26000EA8
:10117000DD2247C0D9FF48C0DAFFDFCF49F0020EB9
:10118000DE26DFCF4AF0000EDD2249C0D9FF4AC07B
:10119000DAFFDECF5DF0DDCF5EF05DC0D9FF5EC06F
:1011A000DAFFCCC0DFFF000E446E000E436E2AEF64
:1011B0000EF02AEF0EF045C0D9FF46C0DAFFDECFB1
:1011C00001F0DDCF02F0210E036E060E046E000E5C
:1011D000066E020E056EB4EC1BF001500210D8A48E
:1011E000F4EF08F0F6EF08F022EF09F0020E45C028
:1011F000D9FF46C0DAFFDE26000EDD2247C0D9FF48
:1012000048C0DAFFDFCF49F0020EDE26DFCF4AF01A
:10121000000EDD2249C0D9FF4AC0DAFFDECF5DF003
:10122000DDCF5EF05DC0D9FF5EC0DAFFCCC0DEFF6F
:10123000CDC0DDFF000E446E000E436E2AEF0EF0AF
:101240002AEF0EF045C0D9FF46C0DAFFDECFF6FF29
:10125000DDCFF7FF0800F5506E0AD8A432EF09F091
:1012600034EF09F05FEF09F045C0D9FF46C0DAFF5F
:10127000DE2A000EDD2247C0D9FF48C0DAFFDFCFEB
:1012800049F0020EDE26DFCF4AF0000EDD2249C013
:10129000D9FF4AC0DAFFDECF5DF0DDCF5EF05DC082
:1012A000D9FF5EC0DAFFCCC0DEFFCDC0DDFF000E8F
:1012B000446E000E436E2AEF0EF02AEF0EF045C08A
:1012C000D9FF46C0DAFFDECF01F0DDCF02F0390EE4
:1012D000036E060E046E000E066E020E056EB4EC72
:1012E0001BF001500210D8A478EF09F07AEF09F052
:1012F000A6EF09F0020E45C0D9FF46C0DAFFDE2690
:10130000000EDD2247C0D9FF48C0DAFFDFCF49F029
:10131000020EDE26DFCF4AF0000EDD2249C0D9FFE3
:101320004AC0DAFFDECF5DF0DDCF5EF05DC0D9FFF1
:101330005EC0DAFFCCC0DEFFCDC0DDFF000E446E24
:10134000000E436E2AEF0EF02AEF0EF045C0D9FFD3
:1013500046C0DAFFDECFF6FFDDCFF7FF0800F5501D
:10136000700AD8A4B6EF09F0B8EF09F0FDEF09F064
:1013700045C0D9FF46C0DAFFDE2A000EDD2247C095
:10138000D9FF48C0DAFFDFCF49F0020EDE26DFCFFB
:101390004AF0000EDD2249C0D9FF4AC0DAFFDECF95
:1013A0004BF0DDCF4CF04BC060F04CC061F0626A96
:1013B000636A646A656A666A676A43C01CF044C00F
:1013C0001DF060C01EF061C01FF062C020F063C05D
:1013D00021F064C022F065C023F066C024F067C02D
:1013E00025F0780E266E28EC10F01CC043F01DC0CE
:1013F00044F02AEF0EF02AEF0EF045C0D9FF46C0A8
:10140000DAFFDECFF6FFDDCFF7FF0800F550730AF5
:10141000D8A40DEF0AF00FEF0AF03CEF0AF045C038
:10142000D9FF46C0DAFFDE2A000EDD2247C0D9FF11
:1014300048C0DAFFDFCF49F0020EDE26DFCF4AF0E8
:10144000000EDD2249C0D9FF4AC0DAFFDECF4DF0E1
:10145000DDCF4EF043C00AF044C00BF04DC00CF09D
:101460004EC00DF048EC17F00AC043F00BC044F03A
:101470002AEF0EF02AEF0EF045C0D9FF46C0DAFF82
:10148000DECF01F0DDCF02F0280E036E060E046EF3
:10149000000E066E030E056EB4EC1BF00150021038
:1014A000D8A455EF0AF057EF0AF098EF0AF0030EB0
:1014B00045C0D9FF46C0DAFFDE26000EDD2247C058
:1014C000D9FF48C0DAFFDFCF49F0020EDE26DFCFBA
:1014D0004AF0000EDD2249C0D9FF4AC0DAFFDF50D2
:1014E0004B6E4B50606E616A626A636A646A656AD9
:1014F000666A676A43C01CF044C01DF060C01EF0FD
:1015000061C01FF062C020F063C021F064C022F00F
:1015100065C023F066C024F067C025F050EC13F0DE
:101520001CC043F01DC044F02AEF0EF02AEF0EF06D
:1015300045C0D9FF46C0DAFFDECF01F0DDCF02F0B3
:10154000290E036E060E046E000E066E020E056E68
:10155000B4EC1BF001500210D8A4B1EF0AF0B3EFC5
:101560000AF0F7EF0AF0020E45C0D9FF46C0DAFFD5
:10157000DE26000EDD2247C0D9FF48C0DAFFDFCFEC
:1015800049F0020EDE26DFCF4AF0000EDD2249C010
:10159000D9FF4AC0DAFFDECF4BF0DDCF4CF04BC0B5
:1015A00060F04CC061F0626A636A646A656A666A88
:1015B000676A43C01CF044C01DF060C01EF061C0EB
:1015C0001FF062C020F063C021F064C022F065C04B
:1015D00023F066C024F067C025F050EC13F01CC067
:1015E00043F01DC044F02AEF0EF02AEF0EF045C084
:1015F000D9FF46C0DAFFDECFF6FFDDCFF7FF0800E8
:10160000F550750AD8A407EF0BF009EF0BF04CEF7B
:101610000BF045C0D9FF46C0DAFFDE2A000EDD22FE
:1016200047C0D9FF48C0DAFFDFCF49F0020EDE26FF
:10163000DFCF4AF0000EDD2249C0D9FF4AC0DAFFF1
:10164000DECF4BF0DDCF4CF04BC060F04CC061F012
:10165000626A636A646A656A666A676A43C01CF0A4
:1016600044C01DF060C01EF061C01FF062C020F0D9
:1016700063C021F064C022F065C023F066C024F08E
:1016800067C025F050EC13F01CC043F01DC044F0BF
:101690002AEF0EF02AEF0EF045C0D9FF46C0DAFF60
:1016A000DECF01F0DDCF02F03F0E036E060E046EBA
:1016B000000E066E020E056EB4EC1BF00150021017
:1016C000D8A465EF0BF067EF0BF0ABEF0BF0020E59
:1016D00045C0D9FF46C0DAFFDE26000EDD2247C036
:1016E000D9FF48C0DAFFDFCF49F0020EDE26DFCF98
:1016F0004AF0000EDD2249C0D9FF4AC0DAFFDECF32
:101700004BF0DDCF4CF04BC060F04CC061F0626A32
:10171000636A646A656A666A676A43C01CF044C0AB
:101720001DF060C01EF061C01FF062C020F063C0F9
:1017300021F064C022F065C023F066C024F067C0C9
:1017400025F050EC13F01CC043F01DC044F02AEF0C
:101750000EF02AEF0EF045C0D9FF46C0DAFFDECF0B
:1017600001F0DDCF02F02C0E036E060E046E000EAB
:10177000066E030E056EB4EC1BF001500210D8B4D7
:10178000C4EF0BF0C6EF0BF0E3EF0BF045C0D9FF51
:1017900046C0DAFFDECF01F0DDCF02F0140E036E9B
:1017A000060E046E000E066E030E056EB4EC1BF002
:1017B00001500210D8A4DFEF0BF0E1EF0BF039EF8E
:1017C0000CF0E3EF0BF045C0D9FF46C0DAFFDECFE7
:1017D00049F0DDCF4AF0020E4926000E4A2249C0E8
:1017E000F6FF4AC0F7FF0800F5CF5FF0030E45C0D3
:1017F000D9FF46C0DAFFDE26000EDD2247C0D9FF42
:1018000048C0DAFFDFCF49F0020EDE26DFCF4AF014
:10181000000EDD2249C0D9FF4AC0DAFFDF504B6E0F
:101820004B50606E616A626A636A646A656A666A7E
:10183000676A43C01CF044C01DF060C01EF061C068
:101840001FF062C020F063C021F064C022F065C0C8
:1018500023F066C024F067C025F05FC026F028ECB6
:1018600010F01CC043F01DC044F02AEF0EF02AEF28
:101870000EF045C0D9FF46C0DAFFDECF01F0DDCF64
:1018800002F02D0E036E060E046E000E066E020EA2
:10189000056EB4EC1BF001500210D8B452EF0CF0FE
:1018A00054EF0CF071EF0CF045C0D9FF46C0DAFFE1
:1018B000DECF01F0DDCF02F0150E036E060E046ED2
:1018C000000E066E020E056EB4EC1BF00150021005
:1018D000D8A46DEF0CF06FEF0CF0CAEF0CF071EFC5
:1018E0000CF045C0D9FF46C0DAFFDECF49F0DDCFAE
:1018F0004AF0010E4926000E4A2249C0F6FF4AC0AE
:10190000F7FF0800F5CF5FF0020E45C0D9FF46C0D3
:10191000DAFFDE26000EDD2247C0D9FF48C0DAFF1D
:10192000DFCF49F0020EDE26DFCF4AF0000EDD22C7
:1019300049C0D9FF4AC0DAFFDECF4BF0DDCF4CF013
:101940004BC060F04CC061F0626A636A646A656AA9
:10195000666A676A43C01CF044C01DF060C01EF098
:1019600061C01FF062C020F063C021F064C022F0AB
:1019700065C023F066C024F067C025F05FC026F084
:1019800028EC10F01CC043F01DC044F02AEF0EF00C
:101990002AEF0EF045C0D9FF46C0DAFFDECFF6FFD2
:1019A000DDCFF7FF0800F550780AD8B4DAEF0CF075
:1019B000DCEF0CF0F0EF0CF045C0D9FF46C0DAFFC9
:1019C000DECFF6FFDDCFF7FF0800F550580AD8A4A8
:1019D000ECEF0CF0EEEF0CF040EF0DF0F0EF0CF050
:1019E00045C0D9FF46C0DAFFDECFF6FFDDCFF7FFF7
:1019F0000800F5CF5FF045C0D9FF46C0DAFFDE2A08
:101A0000000EDD2247C0D9FF48C0DAFFDFCF49F022
:101A1000020EDE26DFCF4AF0000EDD2249C0D9FFDC
:101A20004AC0DAFFDECF4BF0DDCF4CF04BC060F0A8
:101A30004CC061F0626A636A646A656A666A676A72
:101A400043C01CF044C01DF060C01EF061C01FF018
:101A500062C020F063C021F064C022F065C023F0B2
:101A600066C024F067C025F05FC026F028EC10F0B7
:101A70001CC043F01DC044F02AEF0EF02AEF0EF018
:101A800045C0D9FF46C0DAFFDECF01F0DDCF02F05E
:101A9000420E036E060E046E000E066E020E056EFA
:101AA000B4EC1BF001500210D8B459EF0DF05BEF0D
:101AB0000DF078EF0DF045C0D9FF46C0DAFFDECF5C
:101AC00001F0DDCF02F0300E036E060E046E000E44
:101AD000066E020E056EB4EC1BF001500210D8A485
:101AE00074EF0DF076EF0DF0D1EF0DF078EF0DF013
:101AF00045C0D9FF46C0DAFFDECF49F0DDCF4AF05E
:101B0000010E4926000E4A2249C0F6FF4AC0F7FFDF
:101B10000800F5CF5FF0020E45C0D9FF46C0DAFFDE
:101B2000DE26000EDD2247C0D9FF48C0DAFFDFCF36
:101B300049F0020EDE26DFCF4AF0000EDD2249C05A
:101B4000D9FF4AC0DAFFDECF4BF0DDCF4CF04BC0FF
:101B500060F04CC061F0626A636A646A656A666AD2
:101B6000676A43C01CF044C01DF060C01EF061C035
:101B70001FF062C020F063C021F064C022F065C095
:101B800023F066C024F067C025F05FC026F028EC83
:101B900010F01CC043F01DC044F02AEF0EF02AEFF5
:101BA0000EF045C0D9FF46C0DAFFDECFF6FFDDCF2D
:101BB000F7FF0800F550250AD8A4E1EF0DF0E3EF98
:101BC0000DF0FCEF0DF045C0D9FF46C0DAFFDE2A6C
:101BD000000EDD22000E026E250E016E43C003F0E2
:101BE00044C004F089EC1DF0000E446E010E436EFB
:101BF0002AEF0EF02AEF0EF045C0D9FF46C0DAFFFB
:101C0000DE2A000EDD22000E446E000E436E2AEF27
:101C10000EF02AEF0EF045C0D9FF46C0DAFFDECF46
:101C2000F6FFDDCFF7FF0800F550016E026A43C0F2
:101C300003F044C004F089EC1DF045C0D9FF46C054
:101C4000DAFFDE2A000EDD22000E446E010E436E26
:101C50002AEF0EF012000600E1CFBCF0E2CFBDF09B
:101C6000D9CFBEF0DACFBFF0F3CFC0F0F4CFC1F0E0
:101C7000F6CFC2F0F7CFC3F0F8CFC4F0F5CFC5F080
:101C8000F2A045EF0EF047EF0EF087EF0EF083A0C5
:101C90004CEF0EF04EEF0EF065EF0EF0010154BF69
:101CA0005BEF0EF0545109E1150E535DD8A05BEFC8
:101CB0000EF05DEF0EF065EF0EF0FB0E5327FF0EFA
:101CC000542365EF0EF065EF0EF083A26AEF0EF07D
:101CD0006CEF0EF083EF0EF0010154BF7BEF0EF0BE
:101CE000545107E18C0E535DD8B079EF0EF07BEFC5
:101CF0000EF083EF0EF0050E5327000E542383EFF2
:101D00000EF083EF0EF08C86F29087EF0EF09EA01F
:101D10008CEF0EF08EEF0EF004EF10F09E90000EA0
:101D2000CF6E000ECE6E8CA498EF0EF09AEF0EF0F0
:101D30009DEF0EF08C94A0EF0EF08C84A0EF0EF0CF
:101D4000000E0001C96F000EC86F4DEF0FF0C8C044
:101D5000B5F0C9C0B6F0D890B537B637D890B5371A
:101D6000B637020EB527000EB6233F0EB525D96E45
:101D7000010EB621DA6EDE06000EDD5AC8C0B5F0DF
:101D8000C9C0B6F0D890B537B637D890B537B637A2
:101D9000020EB527000EB6233F0EB525D96E010EF3
:101DA000B621DA6E0A0E010155250001B96F000E49
:101DB000010156210001BA6FDE50B91907E1DE506A
:101DC000BA19D8A4E6EF0EF0E8EF0EF049EF0FF0E5
:101DD0003F0EB56F010EB66FD890C835D96EC935B4
:101DE000DA6ED890D936DA36B551D926B651DA221C
:101DF0000A0E010153250001B96F000E01015421A3
:101E00000001BA6FDE50B95DBA51800ABB6FDE5077
:101E1000800ABB59D8A00FEF0FF011EF0FF049EF78
:101E20000FF03F0EB56F010EB66FD890C835D96E62
:101E3000C935DA6ED890D936DA36B551D926B651C9
:101E4000DA22DECFB7F0DDCFB8F01E0EB727000ED6
:101E5000B823010153510001B75DB851800AB96F31
:101E600001015451800A0001B959D8A03AEF0FF08E
:101E70003CEF0FF049EF0FF001015507D8A05607CE
:101E8000000E0001D36F010ED26F49EF0FF049EF42
:101E90000FF0C84BC92B4DEF0FF0FF0EB56FFF0EC3
:101EA000B66FD4C0B7F0D5C0B8F0B551B727B651AA
:101EB000B823C851B75DB851800AB96FC951800ABB
:101EC000B959D8B066EF0FF068EF0FF0A7EF0EF03A
:101ED0006AEF0FF0D251D311D8A471EF0FF073EF66
:101EE0000FF078EF0FF00101554B562B78EF0FF004
:101EF000000E0001D36F000ED26F000EC76F000EF0
:101F0000C66FB9EF0FF0C6C0B5F0C7C0B6F0D89035
:101F1000B537B637D890B537B637020EB527000EAD
:101F2000B6233F0EB525D96E010EB621DA6E010E2D
:101F3000DBBEA6EF0FF0010EDB5006E1DE04D8B0E9
:101F4000A4EF0FF0A6EF0FF0B4EF0FF0C6C001F052
:101F5000C7C002F06AEC21F0C6C029F0C7C02AF061
:101F6000A3EC20F0B4EF0FF00001C64BC72BB9EF84
:101F70000FF0FF0EB56FFF0EB66FD4C0B7F0D5C02F
:101F8000B8F0B551B727B651B823C651B75DB851AF
:101F9000800AB96FC751800AB959D8B0D2EF0FF093
:101FA000D4EF0FF083EF0FF0D6EF0FF0010156BF23
:101FB000E2EF0FF0565108E15505D8A0E2EF0FF01F
:101FC000E4EF0FF0F4EF0FF056BFF0EF0FF05651C3
:101FD00009E16E0E555DD8A0F0EF0FF0F2EF0FF0B3
:101FE00001EF10F0F4EF0FF0000E546F000E536F7E
:101FF000000E566F140E556F6B07D8A06C0701EFDB
:1020000010F08C9604EF10F0F2A209EF10F00BEF35
:1020100010F012EF10F0F2927EEC19F012EF10F0C7
:1020200012EF10F0C5C0F5FFC4C0F8FFC3C0F7FF42
:10203000C2C0F6FFC1C0F4FFC0C0F3FFBFC0DAFFEB
:10204000BEC0D9FFBDC0E2FFBCC0E1FF7E9211005F
:102050000001D1BF2EEF10F030EF10F033EF10F091
:102060007C9233EF10F0D1BF40EF10F0D15106E178
:10207000D005D8B03EEF10F040EF10F046EF10F072
:10208000000E346E010E336E4AEF10F0D0C033F004
:10209000D1C034F0CEC035F0CFC036F07CA853EFBD
:1020A00010F055EF10F05BEF10F0FE0E3526FF0E2E
:1020B00036225BEF10F01EC037F01FC038F020C092
:1020C00039F021C03AF022C03BF023C03CF024C0DC
:1020D0003DF025C03EF0000E406E1F0E3F6ED60E46
:1020E0003F24D96E000E4020DA6E000EDF6E4BEFFB
:1020F00011F03F06D8A040060F0E3714416E426A19
:1021000042BE8CEF10F0425009E10A0E415CD8A0AB
:102110008CEF10F08EEF10F096EF10F0570E412478
:10212000416E000E4220426E9CEF10F0300E4124B2
:10213000416E000E4220426EBF0E276EFF0E286ECB
:102140002650296E2A6A2750292628502A222A50EA
:102150000AE11A0E295CD8A0B0EF10F0B3EF10F02E
:10216000010EB4EF10F0000E2F6E306AC3EF10F0C6
:1021700026C001F0026AA7EC23F001C02FF002C0D4
:1021800030F0C3EF10F02F503010D8B4CAEF10F079
:10219000CCEF10F00CEF11F09F0E276EFF0E286EA3
:1021A000200E4110296E000E42102A6E275029265B
:1021B00028502A222A500AE11A0E295CD8A0E3EFFF
:1021C00010F0E6EF10F0010EE7EF10F0000E316EA8
:1021D000326AF7EF10F041C001F042C002F04BEC60
:1021E00023F001C031F002C032F0F7EF10F03150AF
:1021F0003210D8B4FEEF10F000EF11F00CEF11F038
:1022000041C007F042C008F0F5EC20F007C041F0F3
:1022100008C042F00CEF11F0D60E3F24D96E000E2C
:102220004020DA6E41C0DFFF3306D8A03406350601
:10223000D8A0360637C027F038C028F039C029F0BA
:102240003AC02AF03BC02BF03CC02CF03DC02DF032
:102250003EC02EF0050E36EF11F0D8902E322D3202
:102260002C322B322A32293228322732E82E2DEF17
:1022700011F027C037F028C038F029C039F02AC043
:102280003AF02BC03BF02CC03CF02DC03DF02EC0EE
:102290003EF04BEF11F040BE57EF11F0405009E116
:1022A000020E3F5CD8A057EF11F059EF11F08DEFFF
:1022B00011F03750381039103A103B103C103D10D7
:1022C0003E10D8A466EF11F068EF11F079EF10F02E
:1022D00034BE75EF11F0345006E13304D8B073EF1B
:1022E00011F075EF11F079EF10F036BE80EF11F0BC
:1022F000365008E13504D8A080EF11F082EF11F0DC
:102300008DEF11F07CB287EF11F089EF11F079EFCA
:1023100010F08DEF11F08DEF11F07CA892EF11F01D
:1023200094EF11F0ACEF11F03F06D8A04006D60EA6
:102330003F24D96E000E4020DA6E26C0DFFF3F0634
:10234000D8A04006D60E3F24D96E000E4020DA6E8B
:10235000300EDF6EACEF11F01CC011F01DC012F09A
:10236000D60E3F24136E000E4020146E35C015F0BB
:1023700036C016F03EEC1FF011C01CF012C01DF06C
:10238000C2EF11F012001EC036F01FC037F020C09F
:1023900038F021C039F022C03AF023C03BF024C00D
:1023A0003CF025C03DF03DBED8EF11F0DBEF11F061
:1023B000010EDCEF11F0000E346E356A345035102A
:1023C000D8B4E5EF11F0E7EF11F0F9EF11F03D1E91
:1023D0003C1E3B1E3A1E391E381E371E366C000E40
:1023E0003722382239223A223B223C223D22F9EF81
:1023F00011F00001D1BFFFEF11F001EF12F004EF77
:1024000012F07C9204EF12F0D1BF11EF12F0D15113
:1024100006E1D005D8B00FEF12F011EF12F017EF70
:1024200012F0000E316E010E306E1BEF12F0D0C0B4
:1024300030F0D1C031F0CEC032F0CFC033F03450E4
:102440003510D8A426EF12F028EF12F031EF12F079
:102450007CA42DEF12F02FEF12F036EF12F031EFD7
:1024600012F03206D8A0330636EF12F0000E3F6E9F
:102470001F0E3E6ED60E3E24D96E000E3F20DA6E41
:10248000000EDF6EC2EF12F03E06D8A03F06D60E59
:102490003E24D96E000E3F20DA6E36C001F037C000
:1024A00002F038C003F039C004F03AC005F03BC078
:1024B00006F03CC007F03DC008F00A0E096E000EA1
:1024C0000A6E000E0B6E000E0C6E000E0D6E000EEE
:1024D0000E6E000E0F6E000E106E1DEC18F001C097
:1024E00026F002C027F003C028F004C029F005C080
:1024F0002AF006C02BF007C02CF008C02DF026C033
:1025000013F028C014F029EC23F01350300FDF6EC5
:102510003006D8A031063206D8A0330636C001F006
:1025200037C002F038C003F039C004F03AC005F0FB
:102530003BC006F03CC007F03DC008F00A0E096E33
:10254000000E0A6E000E0B6E000E0C6E000E0D6E6D
:10255000000E0E6E000E0F6E000E106E70EC16F078
:1025600001C036F002C037F003C038F004C039F0C3
:1025700005C03AF006C03BF007C03CF008C03DF093
:10258000C2EF12F03FBECDEF12F03F5008E13E0423
:10259000D8A0CDEF12F0CFEF12F005EF13F03650C8
:1025A0003710381039103A103B103C103D10D8A4A9
:1025B000DCEF12F0DEEF12F044EF12F031BEEBEF81
:1025C00012F0315006E13004D8B0E9EF12F0EBEF31
:1025D00012F044EF12F033BEF6EF12F0335008E180
:1025E0003204D8A0F6EF12F0F8EF12F005EF13F076
:1025F0007CB2FDEF12F0FFEF12F044EF12F005EFA6
:1026000013F005EF13F005EF13F034503510D8A494
:102610000CEF13F00EEF13F017EF13F07CA413EF91
:1026200013F015EF13F039EF13F017EF13F03E0628
:10263000D8A03F0634503510D8A421EF13F023EF73
:1026400013F029EF13F0000E2F6E2B0E2E6E2FEFCE
:1026500013F0000E2F6E2D0E2E6E2FEF13F0D60EF0
:102660003E24D96E000E3F20DA6E2EC0DFFF39EF18
:1026700013F01CC011F01DC012F0D60E3E24136ED4
:10268000000E3F20146E32C015F033C016F03EEC41
:102690001FF011C01CF012C01DF04FEF13F012001C
:1026A0000001D1BF56EF13F058EF13F05BEF13F0BA
:1026B0007C925BEF13F0D1BF68EF13F0D15106E1CC
:1026C000D005D8B066EF13F068EF13F06EEF13F09B
:1026D000000E2F6E010E2E6E72EF13F0D0C02EF092
:1026E000D1C02FF0CEC030F0CFC031F01EC032F0DC
:1026F0001FC033F020C034F021C035F022C036F0C6
:1027000023C037F024C038F025C039F0000E3B6EEE
:102710001F0E3A6ED60E3A24D96E000E3B20DA6EAA
:10272000000EDF6E0CEF14F03A06D8A03B06D60E72
:102730003A24D96E000E3B20DA6E32C001F033C06D
:1027400002F034C003F035C004F036C005F037C0E5
:1027500006F038C007F039C008F00A0E096E000E06
:102760000A6E000E0B6E000E0C6E000E0D6E000E4B
:102770000E6E000E0F6E000E106EA6EC1CF001C067
:1027800026F002C027F003C028F004C029F005C0DD
:102790002AF006C02BF007C02CF008C02DF0265000
:1027A000300FDF6E2E06D8A02F063006D8A03106D7
:1027B00032C001F033C002F034C003F035C004F081
:1027C00036C005F037C006F038C007F039C008F051
:1027D0000A0E096E000E0A6E000E0B6E000E0C6ED5
:1027E000000E0D6E000E0E6E000E0F6E000E106EBF
:1027F00032EC1BF001C032F002C033F003C034F001
:1028000004C035F005C036F006C037F007C038F018
:1028100008C039F00CEF14F03A503B10D8B413EF65
:1028200014F015EF14F04BEF14F032503310341055
:1028300035103610371038103910D8A422EF14F0A4
:1028400024EF14F094EF13F02FBE31EF14F02F505B
:1028500006E12E04D8B02FEF14F031EF14F094EF0E
:1028600013F031BE3CEF14F0315008E13004D8A031
:102870003CEF14F03EEF14F04BEF14F07CB243EF5A
:1028800014F045EF14F094EF13F04BEF14F04BEF0E
:1028900014F04BEF14F01CC011F01DC012F0D60E56
:1028A0003A24136E000E3B20146E30C015F031C078
:1028B00016F03EEC1FF011C01CF012C01DF061EFCD
:1028C00014F012000001D1BF68EF14F06AEF14F0A9
:1028D0006DEF14F07C926DEF14F0D1BF7AEF14F02D
:1028E000D15106E1D005D8B078EF14F07AEF14F0AA
:1028F00080EF14F0000E2F6E010E2E6E84EF14F098
:10290000D0C02EF0D1C02FF0CEC032F0CFC033F007
:102910001EC034F01FC035F020C036F021C037F0A3
:1029200022C038F023C039F024C03AF025C03BF073
:10293000000E3D6E1F0E3C6ED60E3C24D96E000E6E
:102940003D20DA6E000EDF6E000E316E000E306E2E
:10295000F1EF14F03C06D8A03D06070E3414306E9B
:10296000316AD60E3C24D96E000E3D20DA6E30500E
:10297000300FDF6E2E06D8A02F063206D8A0330601
:1029800034C026F035C027F036C028F037C029F013
:1029900038C02AF039C02BF03AC02CF03BC02DF0E3
:1029A000040EDCEF14F0D8902D322C322B322A3268
:1029B0002932283227322632E82ED3EF14F026C0EF
:1029C00034F027C035F028C036F029C037F02AC0CF
:1029D00038F02BC039F02CC03AF02DC03BF0F1EFAD
:1029E00014F03DBEFCEF14F03D5008E13C04D8A0CB
:1029F000FCEF14F0FEEF14F032EF15F03450351008
:102A000036103710381039103A103B10D8A40BEF9D
:102A100015F00DEF15F0AAEF14F02FBE1AEF15F018
:102A20002F5006E12E04D8B018EF15F01AEF15F06C
:102A3000AAEF14F033BE25EF15F0335008E132044D
:102A4000D8A025EF15F027EF15F032EF15F07CB286
:102A50002CEF15F02EEF15F0AAEF14F032EF15F071
:102A600032EF15F07CA837EF15F039EF15F052EF83
:102A700015F030503110D8B440EF15F042EF15F09A
:102A800052EF15F03C06D8A03D06D60E3C24D96E78
:102A9000000E3D20DA6E300EDF6E3206D8A033060F
:102AA00052EF15F01CC011F01DC012F0D60E3C24E0
:102AB000136E000E3D20146E32C015F033C016F0B8
:102AC0003EEC1FF011C01CF012C01DF068EF15F0B5
:102AD0001200000E166E000E156E000E0F6E000E28
:102AE0000E6E77EF15F0084A092A77EF15F0010E00
:102AF000146E08C0F6FF09C0F7FF0800F550200A61
:102B0000D8B485EF15F087EF15F0A6EF15F0F70EA6
:102B10000A6EFF0E0B6E08C0F6FF09C0F7FF080033
:102B2000F5500C6E0D6A0A500C260B500D220D50FC
:102B300009E1050E0C5CD8A0A0EF15F0A2EF15F08E
:102B4000A6EF15F0000E146EA6EF15F014C010F0ED
:102B5000116ABBEF15F008C0F6FF09C0F7FF0800C7
:102B6000F550016E026A63EC22F001C010F002C061
:102B700011F0BBEF15F010501110D8A4C2EF15F0F2
:102B8000C4EF15F073EF15F0D2EF15F0D2EF15F09A
:102B9000000E0F6E010E0E6ECEEF15F0084A092AD8
:102BA00016EF16F008C0F6FF09C0F7FF0800F55051
:102BB0000A6E0B6A0B50000AD8B4E1EF15F016EF5D
:102BC00016F00A502B0AD8B4CEEF15F0060AD8B486
:102BD000C8EF15F016EF16F016EF16F0D00E0A6ECD
:102BE000FF0E0B6E08C0F6FF09C0F7FF0800F55096
:102BF0000C6E0D6A0A500C260B500D220C1E0D1E79
:102C00000C4A0D2A15C001F016C002F0000E046E29
:102C10000A0E036EE3EC23F00C500124156E0D50E8
:102C20000220166E084A092A16EF16F0D00E0A6E18
:102C3000FF0E0B6E08C0F6FF09C0F7FF0800F55045
:102C40000C6E0D6A0A500C260B500D220D500AE135
:102C50000A0E0C5CD8A02FEF16F032EF16F0010E22
:102C600033EF16F0000E126E136A47EF16F008C02D
:102C7000F6FF09C0F7FF0800F550016E026AC5ECC7
:102C800023F001C012F002C013F047EF16F012500B
:102C90001310D8A44EEF16F050EF16F0EEEF15F02B
:102CA00052EF16F00E500F10D8A459EF16F05BEF4C
:102CB00016F069EF16F015C00AF016C00BF00A1EE8
:102CC0000B1E0A4A0B2A0AC008F00BC009F06FEF6E
:102CD00016F015C008F016C009F06FEF16F01200DC
:102CE000000E126E10BE79EF16F077EF16F08DEF32
:102CF00016F0101E0F1E0E1E0D1E0C1E0B1E0A1EA1
:102D0000096C000E0A220B220C220D220E220F2229
:102D10001022010E126E8DEF16F008BE94EF16F021
:102D200092EF16F0A8EF16F0081E071E061E051EED
:102D3000041E031E021E016C000E02220322042246
:102D40000522062207220822010E121AA8EF16F009
:102D500020EE13F0070EDE6AE806FDE209500A10C5
:102D60000B100C100D100E100F101010D8B4BBEF7C
:102D700016F0BDEF16F01BEF17F0010E116ECDEF40
:102D800016F0D89009360A360B360C360D360E364C
:102D90000F361036112ACDEF16F010AED2EF16F026
:102DA000D4EF16F0C1EF16F0D8EF16F0D8EF16F00A
:102DB000D890133614361536163617361836193697
:102DC0001A360950015C0A5002580B5003580C5037
:102DD00004580D5005580E5006580F500758105003
:102DE0000858D8A0F6EF16F0F8EF16F00BEF17F032
:102DF0000950015E0A50025A0B50035A0C50045AF3
:102E00000D50055A0E50065A0F50075A1050085AC6
:102E100013800BEF17F0D89010320F320E320D32B4
:102E20000C320B320A320932112ED8EF16F01BEF9A
:102E300017F01BEF17F01250D8B421EF17F023EF63
:102E400017F035EF17F01A1E191E181E171E161E42
:102E5000151E141E136C000E1422152216221722A2
:102E6000182219221A2235EF17F013C001F014C0EE
:102E700002F015C003F016C004F017C005F018C02A
:102E800006F019C007F01AC008F047EF17F012005B
:102E900020EEF6F010EE0FF0060EDBCFE3FFE806B3
:102EA000FCE20CC01AF00DC01BF01A501B10D8A485
:102EB0005CEF17F05EEF17F064EF17F00F0E1A6E6D
:102EC000000E1B6E64EF17F01AC001F01BC002F079
:102ED00090EC22F001C01EF002C01FF0D0C01CF028
:102EE000D1C01DF01DBE77EF17F079EF17F090EF0E
:102EF00017F01E501C5C1D50800A0E6E1F50800A79
:102F00000E58D8A086EF17F088EF17F08CEF17F067
:102F100090EF17F090EF17F01CC01EF01DC01FF0CF
:102F20001EC01CF01FC01DF0CEC018F0CFC019F09D
:102F30007CB09DEF17F09FEF17F0C4EF17F0B1EFE3
:102F400017F0B1EF17F0000E026E200E016E0AC0EE
:102F500003F00BC004F089EC1DF01E4A1F2AB1EFEC
:102F600017F018501E5C1F50800A0E6E1950800A10
:102F70000E58D8A0BEEF17F0C0EF17F0A3EF17F070
:102F8000C4EF17F0C4EF17F0000E176E000E166EA8
:102F9000DFEF17F01AC0D9FF1BC0DAFFDF500E6E4B
:102FA0000E50016E026A0AC003F00BC004F089ECF7
:102FB0001DF01A4A1B2A164A172ADFEF17F01C5079
:102FC000165C1750800A0E6E1D50800A0E58D8A04D
:102FD000ECEF17F0EEEF17F0CAEF17F07CA0F3EF6D
:102FE00017F0F5EF17F018EF18F007EF18F007EFEC
:102FF00018F0000E026E200E016E0AC003F00BC026
:1030000004F089EC1DF01E4A1F2A07EF18F0185033
:103010001E5C1F50800A0E6E1950800A0E58D8A0F0
:1030200014EF18F016EF18F0F9EF17F018EF18F08A
:103030001EC00AF01FC00BF01200000E126E08BE78
:1030400026EF18F024EF18F03AEF18F0081E071ECC
:10305000061E051E041E031E021E016C000E022227
:10306000032204220522062207220822010E126EE4
:103070003AEF18F010BE41EF18F03FEF18F053EFA1
:1030800018F0101E0F1E0E1E0D1E0C1E0B1E0A1E0B
:10309000096C000E0A220B220C220D220E220F2296
:1030A000102253EF18F009500A100B100C100D10DD
:1030B0000E100F101010D8B460EF18F062EF18F077
:1030C000B6EF18F0010E116E72EF18F0D8900936B5
:1030D0000A360B360C360D360E360F361036112AE0
:1030E00072EF18F010AE77EF18F079EF18F066EF86
:1030F00018F07DEF18F07DEF18F00950015C0A50D0
:1031000002580B5003580C5004580D5005580E50DF
:1031100006580F50075810500858D8A092EF18F0D2
:1031200094EF18F0A6EF18F00950015E0A50025A09
:103130000B50035A0C50045A0D50055A0E50065AA3
:103140000F50075A1050085AA6EF18F0D8901032B6
:103150000F320E320D320C320B320A320932112E7E
:103160007DEF18F0B6EF18F0B6EF18F01250D8B4A3
:10317000BCEF18F0BEEF18F0D0EF18F0081E071ED5
:10318000061E051E041E031E021E016C000E0222F6
:10319000032204220522062207220822D0EF18F07B
:1031A00001C001F002C002F003C003F004C004F04B
:1031B00005C005F006C006F007C007F008C008F01B
:1031C000E2EF18F01200000E0101146F12BFEDEFD4
:1031D00018F0EBEF18F0F9EF18F0121F111F101F85
:1031E0000F6D000E102311231223010E146FF9EF3F
:1031F00018F00EBF00EF19F0FEEF18F00CEF19F009
:103200000E1F0D1F0C1F0B6D000E0C230D230E2324
:10321000010E141B0CEF19F0000E156F000E166F47
:10322000000E176F000E186F0F51101111111211AF
:10323000D8B41DEF19F01FEF19F061EF19F0010E6E
:10324000136F2BEF19F0D8900F3710371137123753
:10325000132B2BEF19F012AF30EF19F032EF19F0FA
:1032600023EF19F036EF19F036EF19F0D890153733
:103270001637173718370F510B5D10510C59115174
:103280000D5912510E59D8A048EF19F04AEF19F014
:1032900055EF19F00F510B5F10510C5B11510D5B85
:1032A00012510E5B158155EF19F0D890123311337E
:1032B00010330F33132F36EF19F061EF19F061EF70
:1032C00019F01451D8B467EF19F069EF19F073EFE2
:1032D00019F0181F171F161F156D000E1623172340
:1032E000182373EF19F015C10BF116C10CF117C1BA
:1032F0000DF118C10EF17DEF19F0120034EC21F040
:103300009F0E00018A6F000E8B6F000E8D6F0A0EEC
:103310008C6F0B0E8E6F060E8F6F53C190F054C1E1
:1033200091F055C192F056C193F06BEC23F09F0ED3
:10333000026E000E036E05EC23F034EC21F0000E5B
:103340000001B46F000EB36FF6EF19F034EC21F00A
:10335000A90E00018A6F000E8B6F000E8D6F0A0E92
:103360008C6F010E8E6F060E8F6F010EB325906F5E
:10337000000EB421916F3F0E9A6F010E9B6FD89093
:10338000B335D96EB435DA6ED890D936DA369A516B
:10339000D9269B51DA22DECF92F0DDCF93F0B3C075
:1033A0009CF0B4C09DF0D8909C379D37D8909C3746
:1033B0009D37020E9C27000E9D233F0E9C25D96E43
:1033C000010E9D21DA6EDECF94F0DDCF95F06BEC2F
:1033D00023F0A90E026E000E036E05EC23F034EC10
:1033E00021F00001B34BB42BF6EF19F0FF0E9A6FEA
:1033F000FF0E9B6FD4C09CF0D5C09DF09A519C27C6
:103400009B519D23B3519C5D9D51800A9E6FB45189
:10341000800A9E59D8B00FEF1AF011EF1AF0A6EFFC
:1034200019F013EF1AF01200800E735CD8A01BEF96
:103430001AF01DEF1AF028EF1AF0000E0001CB6F02
:103440004B0ECA6F70687168A7EF1AF0A7EF1AF0F9
:1034500070C084F071C085F0735009E1020E725C97
:10346000D8A035EF1AF037EF1AF044EF1AF0FF0E3C
:1034700072240001886FFF0E7320896F000E876F22
:10348000000E866F4FEF1AF0000E0001896F010EDB
:10349000886F000E876F010E866F4FEF1AF0840E53
:1034A000686E000E696E74C06AF075C06BF076C00D
:1034B0006CF077C06DF09FEC21F068C082F069C0BD
:1034C00083F072507310D8B468EF1AF06AEF1AF0F4
:1034D000A1EF1AF0000183BF70EF1AF072EF1AF03B
:1034E000A1EF1AF0FF0E786EFF0E796E72C07AF0BF
:1034F00073C07BF078507A2679507B227A50825DB7
:103500007B508359D8A087EF1AF089EF1AF091EF1A
:103510001AF0FF0E7224806FFF0E7320816F97EFF9
:103520001AF082C080F083C081F097EF1AF08051CA
:103530007024D96E81517120DA6E000EDF6EA1EF1A
:103540001AF082C070F083C071F0A7EF1AF0120079
:1035500093689580958295949596000E946E000ED2
:103560000101546F1E0E536F000E566F0A0E556FF9
:10357000000E3E6F000E3D6F3EBFC8EF1AF03E5189
:1035800009E1050E3D5DD8A0C8EF1AF0CAEF1AF0A8
:10359000CEEF1AF00CEF1BF00CEF1BF03F0E3B6F61
:1035A000010E3C6FD8903D35D96E3E35DA6ED8901D
:1035B000D936DA363B51D9263C51DA22000EDE6E7E
:1035C000000EDD6E3DC13BF13EC13CF1D8903B3772
:1035D0003C37D8903B373C37020E3B27000E3C234C
:1035E0003F0E3B25D96E010E3C21DA6E000EDE6ED9
:1035F000000EDD6E3D4B3E2B3EBF08EF1BF03E51F3
:1036000009E1050E3D5DD8A008EF1BF00AEF1BF0A5
:10361000CEEF1AF00CEF1BF034EC22F02AEC24F081
:10362000F8EC23F0000E0101346F000E336FA7ECAD
:103630001FF01BEF1BF08C966BC18BFF01016B51D0
:103640006C11D8A426EF1BF028EF1BF01BEF1BF02A
:1036500030EF1BF030EF1BF01BEF1BF01BEF1BF0EC
:103660003CEF00F020EE11F0070EDE6AE806FDE206
:1036700009500A100B100C100D100E100F10101026
:10368000D8B445EF1BF047EF1BF0A3EF1BF0010E82
:10369000196E57EF1BF0D89009360A360B360C36E8
:1036A0000D360E360F361036192A57EF1BF010AEB6
:1036B0005CEF1BF05EEF1BF04BEF1BF062EF1BF0BB
:1036C00062EF1BF0D89011361236133614361536C9
:1036D0001636173618360950015C0A5002580B503E
:1036E00003580C5004580D5005580E5006580F50F2
:1036F000075810500858D8A080EF1BF082EF1BF03D
:1037000095EF1BF00950015E0A50025A0B50035A04
:103710000C50045A0D50055A0E50065A0F50075AB5
:103720001050085A118095EF1BF0D89010320F32CC
:103730000E320D320C320B320A320932192E62EF80
:103740001BF0A3EF1BF011C001F012C002F013C078
:1037500003F014C004F015C005F016C006F017C041
:1037600007F018C008F0120001C009F002C00AF00A
:1037700003C00BF004C00CF00506D8A0060605280F
:1037800006E10628D8A4C7EF1BF0C9EF1BF0DCEF59
:103790001BF0000E026E000E016E33EF1CF033EFD3
:1037A0001CF0DCEF1BF0094A0A2A0B4A0C2A05061A
:1037B000D8A00606DCEF1BF009C0F6FF0AC0F7FF31
:1037C0000800F5500009D8B4E8EF1BF0EAEF1BF051
:1037D0001AEF1CF00BC0F6FF0CC0F7FF0800F55005
:1037E0000009D8B4F6EF1BF0F8EF1BF01AEF1CF04D
:1037F00005500610D8B4FFEF1BF001EF1CF01AEFD4
:103800001CF009C0F6FF0AC0F7FF0800F5CF07F06B
:103810000BC0F6FF0CC0F7FF0800F5500718D8B42E
:1038200014EF1CF016EF1CF0D3EF1BF01AEF1CF096
:103830001AEF1CF00BC0F6FF0CC0F7FF0800F550A4
:10384000076E086A071E081E074A082A09C0F6FF05
:103850000AC0F7FF0800F5500724016E000E08208B
:10386000026E33EF1CF0120063C10BF164C10CF166
:1038700065C10DF166C10EF167C10FF168C110F1AC
:1038800069C111F16AC112F12D0E0101136F7F0E92
:10389000146F950E156F4C0E166F2D0E176FF40EDC
:1038A000186F510E196F580E1A6FFCEC1FF00BC1F8
:1038B00025F10CC126F10DC127F10EC128F10FC170
:1038C00029F110C12AF111C12BF112C12CF1010E05
:1038D00001012525636F000E2621646F000E27214C
:1038E000656F000E2821666F000E2921676F000E9C
:1038F0002A21686F000E2B21696F000E2C216A6F40
:1039000063C125F164C126F165C127F166C128F1C3
:1039100067C129F168C12AF169C12BF16AC12CF193
:10392000080E9CEF1CF0D8902C332B332A3329330C
:103930002833273326332533E82E93EF1CF025C197
:1039400023F127C124F1A5EF1CF0120009500A1041
:103950000B100C100D100E100F101010D8B4B3EF88
:103960001CF0B5EF1CF007EF1DF0010E116EC5EF56
:103970001CF0D89009360A360B360C360D360E364A
:103980000F361036112AC5EF1CF010AECAEF1CF02E
:10399000CCEF1CF0B9EF1CF0D0EF1CF0D0EF1CF016
:1039A0000950015C0A5002580B5003580C5004583F
:1039B0000D5005580E5006580F5007581050085813
:1039C000D8A0E5EF1CF0E7EF1CF0F9EF1CF0095070
:1039D000015E0A50025A0B50035A0C50045A0D5003
:1039E000055A0E50065A0F50075A1050085AF9EF50
:1039F0001CF0D89010320F320E320D320C320B32D6
:103A00000A320932112ED0EF1CF007EF1DF001C071
:103A100001F002C002F003C003F004C004F005C0CE
:103A200005F006C006F007C007F008C008F0120055
:103A300063C101F064C102F065C103F066C104F026
:103A400067C105F068C106F069C107F06AC108F0F6
:103A50002D0E096E7F0E0A6E950E0B6E4C0E0C6EBF
:103A60002D0E0D6EF40E0E6E510E0F6E580E106E62
:103A700050EC20F001C01BF002C01CF003C01DF090
:103A800004C01EF005C01FF006C020F007C021F0E2
:103A900008C022F0010E1B240101636F000E1C20E0
:103AA000646F000E1D20656F000E1E20666F000EF5
:103AB0001F20676F000E2020686F000E2120696FA5
:103AC000000E22206A6F63C11BF064C11CF065C147
:103AD0001DF066C11EF067C11FF068C120F069C10A
:103AE00021F06AC122F0080E7FEF1DF0D89022323B
:103AF000213220321F321E321D321C321B32E82E80
:103B000076EF1DF01BC019F01DC01AF088EF1DF0F4
:103B1000120003500410D8B490EF1DF092EF1DF086
:103B20009DEF1DF003500410D8A499EF1DF09BEFFA
:103B30001DF0A2EF1DF09DEF1DF0015034EC24F0BC
:103B4000F7EF1DF020EE04F00350D9260450DA22DE
:103B5000DE50DE10D8B4AFEF1DF0B1EF1DF0CEEFA8
:103B60001DF020EE04F00350D9260450DA2210EEA6
:103B700002F00350E1260450E222DE50E65CE650FB
:103B8000800A096EDE50800A0958D8B0CAEF1DF0CD
:103B9000CCEF1DF0F7EF1DF0CEEF1DF020EE02F0A0
:103BA0000350D9260450DA22DECF05F0DDCF06F02F
:103BB00003C0D9FF04C0DAFFDECF07F0DDCF08F085
:103BC00005500724D96E06500820DA6E01C0DFFFC9
:103BD00020EE02F00350D9260450DA22DE2A000E2D
:103BE000DD22F7EF1DF0F7EF1DF0F7EF1DF01200EB
:103BF000000E0101326F2EBF02EF1EF000EF1EF02B
:103C00000AEF1EF02D6D2E1FD8B02E2B010E326F35
:103C10000AEF1EF030BF11EF1EF00FEF1EF017EF8E
:103C20001EF02F6D301FD8B0302B17EF1EF02F5124
:103C30003011D8B41EEF1EF020EF1EF050EF1EF032
:103C4000010E316F2AEF1EF0D8902F373037312B0D
:103C50002AEF1EF030AF2FEF1EF031EF1EF024EFF1
:103C60001EF035EF1EF035EF1EF02F512D5D305157
:103C70002E59D8A03EEF1EF040EF1EF046EF1EF08A
:103C80002F512D5F30512E5B46EF1EF0D890303310
:103C90002F33312F35EF1EF050EF1EF050EF1EF096
:103CA0003251D8B456EF1EF058EF1EF05EEF1EF002
:103CB0002D6D2E1FD8B02E2B5EEF1EF02DC12DF1D5
:103CC0002EC12EF164EF1EF01200000E0101056FEF
:103CD00001BF6FEF1EF06DEF1EF077EF1EF0006D6D
:103CE000011FD8B0012B010E056F77EF1EF003BF47
:103CF0007EEF1EF07CEF1EF084EF1EF0026D031FBE
:103D0000D8B0032B84EF1EF002510311D8B48BEF0F
:103D10001EF08DEF1EF0BDEF1EF0010E046F97EF49
:103D20001EF0D89002370337042B97EF1EF003AF35
:103D30009CEF1EF09EEF1EF091EF1EF0A2EF1EF022
:103D4000A2EF1EF00251005D03510159D8A0ABEF64
:103D50001EF0ADEF1EF0B3EF1EF00251005F0351F5
:103D6000015BB3EF1EF0D89003330233042FA2EFB0
:103D70001EF0BDEF1EF0BDEF1EF00551D8B4C3EF2D
:103D80001EF0C5EF1EF0CBEF1EF0006D011FD8B086
:103D9000012BCBEF1EF000C100F101C101F1D1EF09
:103DA0001EF01200000E286E24BEDBEF1EF0D9EFCD
:103DB0001EF0E3EF1EF0236C241ED8B0242A010E5F
:103DC000286EE3EF1EF026BEEAEF1EF0E8EF1EF0CD
:103DD000F0EF1EF0256C261ED8B0262AF0EF1EF05C
:103DE00025502610D8B4F7EF1EF0F9EF1EF029EF9A
:103DF0001FF0010E276E03EF1FF0D89025362636F0
:103E0000272A03EF1FF026AE08EF1FF00AEF1FF07E
:103E1000FDEF1EF00EEF1FF00EEF1FF02550235C9C
:103E200026502458D8A017EF1FF019EF1FF01FEFEE
:103E30001FF02550235E2650245A1FEF1FF0D89004
:103E400026322532272E0EEF1FF029EF1FF029EF23
:103E50001FF02850D8B42FEF1FF031EF1FF037EFCD
:103E60001FF0236C241ED8B0242A37EF1FF023C084
:103E700023F024C024F03DEF1FF012007CA043EF9C
:103E80001FF045EF1FF051EF1FF013C00AF014C0F0
:103E90000BF011C00CF012C00DF0DFEC22F051EF6E
:103EA0001FF016BE56EF1FF058EF1FF05EEF1FF029
:103EB00015C01AF016C01BF062EF1FF0000E1B6E4B
:103EC000000E1A6E000E196E000E186E76EF1FF0BF
:103ED000000E026E200E016E11C003F012C004F03D
:103EE00089EC1DF0184A192A76EF1FF01A50185C59
:103EF0001950800A176E1B50800A1758D8A083EFFC
:103F00001FF085EF1FF068EF1FF07CB08AEF1FF005
:103F10008CEF1FF098EF1FF013C00AF014C00BF0E5
:103F200011C00CF012C00DF0DFEC22F098EF1FF082
:103F300013C001F014C002F090EC22F01A500124DA
:103F4000116E1B500220126EA6EF1FF0120034EC0F
:103F50001CF023C12DF124C12EF1000E0101306FA0
:103F60005A0E2F6FF8EC1DF02DC137F12EC138F12C
:103F700034EC1CF023C12DF124C12EF1000E0101FF
:103F8000306F280E2F6FF8EC1DF03D0E01012D252E
:103F9000396F000E2E213A6F3F0E356F010E366FCE
:103FA000D8903335D96E3435DA6ED890D936DA36C2
:103FB0003551D9263651DA2237C1DEFF38C1DDFF4F
:103FC00033C135F134C136F1D89035373637D89012
:103FD00035373637020E3527000E36233F0E35258E
:103FE000D96E010E3621DA6E39C1DEFF3AC1DDFF2E
:103FF0000001D44BD52B120021EE1BF0070EDE6A18
:10400000E806FDE204EF20F001010BA10AEF20F029
:104010000CEF20F01EEF20F013511B2714511C232E
:1040200015511D2316511E2317511F2318512023EC
:10403000195121231A5122231EEF20F0D890133753
:104040001437153716371737183719371A37D890E6
:104050001233113310330F330E330D330C330B3354
:104060000B510C110D110E110F1110111111121114
:10407000D8A43DEF20F03FEF20F004EF20F01BC16B
:104080000BF11CC10CF11DC10DF11EC10EF11FC1C0
:104090000FF120C110F121C111F122C112F1120062
:1040A00020EE11F0070EDE6AE806FDE258EF20F080
:1040B00001A05DEF20F05FEF20F071EF20F00950DC
:1040C00011260A5012220B5013220C5014220D50AC
:1040D00015220E5016220F5017221050182271EF81
:1040E00020F0D89009360A360B360C360D360E36CF
:1040F0000F361036D89008320732063205320432B5
:104100000332023201320150021003100410051074
:10411000061007100810D8A490EF20F092EF20F0BE
:1041200058EF20F011C001F012C002F013C003F0EC
:1041300014C004F015C005F016C006F017C007F053
:1041400018C008F0120018EC1DF019C023F01AC0B6
:1041500024F0000E266E5A0E256ED2EC1EF023C0FF
:104160002DF024C02EF018EC1DF019C023F01AC059
:1041700024F0000E266E280E256ED2EC1EF03D0EA9
:1041800023242F6E000E2420306E3F0E2B6E010E66
:104190002C6ED8902934D96E2A34DA6ED890D9365C
:1041A000DA362B50D9262C50DA222DC0DEFF2EC055
:1041B000DDFF29C02BF02AC02CF0D8902B362C36EE
:1041C000D8902B362C36020E2B26000E2C223F0EBA
:1041D0002B24D96E010E2C20DA6E2FC0DEFF30C0EA
:1041E000DDFF0001D44BD52B12009F0E096EFF0E90
:1041F0000A6E07C00BF008C00CF009500B260A50DD
:104200000C220C500AE11A0E0B5CD8A00AEF21F028
:104210000DEF21F0010E0EEF21F0000E0D6E0E6A73
:104220001EEF21F007C001F008C002F089EC23F076
:1042300001C00DF002C00EF01EEF21F00D500E1067
:10424000D8B425EF21F027EF21F02FEF21F05F0EFA
:104250000714076E086A33EF21F033EF21F007C02F
:1042600007F008C008F01200000E026E000E016E8A
:1042700002BE44EF21F0025009E10A0E015CD8A011
:1042800044EF21F046EF21F04AEF21F064EF21F0F6
:1042900064EF21F0590E0124D96E010E0220DA6E6E
:1042A000000EDF6E014A022A02BE60EF21F00250CA
:1042B00009E10A0E015CD8A060EF21F062EF21F065
:1042C0004AEF21F064EF21F0000E0101586F000E5B
:1042D000576F1200FC0E036EFF0E046ED4C005F083
:1042E000D5C006F0D89005360636D8900536063685
:1042F00003500526045006223F0E0524D96E010EF8
:104300000620DA6E3F0E076E010E086ED89001345B
:10431000E16E0234E26ED890E136E2360750E126D3
:104320000850E222DECFE6FFDECFE6FFDECFE6FF7B
:10433000DECFE6FF0001D407D8A0D50712006AC07F
:104340006EF06BC06FF0000E0001CD6F000ECC6FF1
:10435000BFEF21F068C043F069C044F06E0E456EB7
:10436000000E466E6CC047F06DC048F023EC03F0C1
:1043700043500001CC274450CD23BFEF21F06EC045
:10438000F6FF6FC0F7FF0800F5500009D8A4CBEF87
:1043900021F0CDEF21F0AAEF21F0CCC068F0CDC024
:1043A00069F01200650EF66E480EF76E000EF86E9C
:1043B0000900F5CF6BF10900F5CF6CF15E0EF66EDA
:1043C000480EF76E000EF86E00EEF6F010EE07F0F5
:1043D0000900F5CFEEFFE550E150FAE101EE3FF0C4
:1043E0002C0EEE6AE806FDE100EECAF02C0EEE6A35
:1043F000E806FDE17D6A7C6A7E907E92000EF86E92
:104400000001A8EF1AF00001CE51CF11D8A40BEF94
:1044100022F00DEF22F013EF22F0CEC01FF0CFC03C
:1044200020F01BEF22F0FF0ECE251F6EFF0ECF21D6
:10443000206E1BEF22F01EC0D6F0000ED76F1CC0FE
:1044400011F01DC012F0D60E136E000E146E1FC0B8
:1044500015F020C016F03EEC1FF011C01CF012C089
:104460001DF033EF22F01200948C948EAC98B88635
:10447000AC84820E0101196F060E1A6F000E1B6FBD
:10448000000E1C6F19C1AFFF19C10BF11AC10CF15D
:104490001BC10DF11CC10EF1000E0F6F010E106F4C
:1044A000000E116F000E126FE3EC18F001010B51BA
:1044B000B06EAB8E9E889E9AAC8AAB889D989F9872
:1044C0009D8A9F9A1200010E076E200E011802109D
:1044D000D8B46DEF22F06FEF22F08AEF22F0F70EE2
:1044E000036EFF0E046E01C005F002C006F003501B
:1044F000052604500622065009E1050E055CD8A0E9
:1045000084EF22F086EF22F08AEF22F0000E076E91
:104510008AEF22F007C001F0026A8FEF22F012004A
:1045200001C005F002C006F09AEF22F0014A022A0B
:104530009AEF22F001C0D9FF02C0DAFFDF50D8A401
:10454000A4EF22F0A6EF22F096EF22F0A8EF22F0DF
:1045500005C003F006C004F0031E041E034A042A2B
:1045600001500324016E02500420026EB8EF22F0C5
:104570001200590E01015725D96E010E5821DA6E2D
:10458000AECFDFFF590E5725D96E010E5821DA6ED6
:10459000DF500BEC24F00101574B582B57C100F1B1
:1045A00058C101F1000E036F0A0E026F65EC1EF098
:1045B00000C157F101C158F1DEEF22F01200000EE8
:1045C000106E000E0F6EF2EF22F00EC001F0026AC4
:1045D0000CC003F00DC004F089EC1DF00F4A102A46
:1045E000F2EF22F00F500A24D96E10500B20DA6E31
:1045F000DF500E6E0E50D8A400EF23F002EF23F030
:10460000E5EF22F004EF23F01200000E056E000E1D
:10461000046E18EF23F004500224D96E05500320D5
:10462000DA6EDF501BEC24F0044A052A18EF23F061
:1046300004500224D96E05500320DA6EDF50D8A44E
:1046400024EF23F026EF23F00BEF23F028EF23F0E5
:10465000120014BE36EF23F0145006E11304D8B054
:1046600034EF23F036EF23F044EF23F013C015F0BE
:1046700014C016F0151E161E154A162A15C013F082
:1046800016C014F04AEF23F013C013F014C014F056
:104690004AEF23F012009F0E036EFF0E046E200EF1
:1046A0000110056E000E0210066E03500526045020
:1046B000062206500AE11A0E055CD8A062EF23F02C
:1046C00065EF23F0010E66EF23F0000E016E026A23
:1046D0006AEF23F01200900E0001986F000E996FA0
:1046E0008AC070F08BC071F08CC072F08DC073F016
:1046F0008EC074F08FC075F0980E766E000E776ED7
:1047000014EC1AF070C096F071C097F088EF23F0A7
:1047100012009F0E036EFF0E046E01C005F002C072
:1047200006F0035005260450062206500AE11A0E30
:10473000055CD8A09EEF23F0A1EF23F0010EA2EFBD
:1047400023F0000E016E026AA6EF23F01200BF0EE6
:10475000036EFF0E046E01C005F002C006F00350A8
:1047600005260450062206500AE11A0E055CD8A060
:10477000BCEF23F0BFEF23F0010EC0EF23F0000EDB
:10478000016E026AC4EF23F01200D00E036EFF0E1A
:10479000046E01C005F002C006F003500526045067
:1047A000062206500AE10A0E055CD8A0DAEF23F0D3
:1047B000DDEF23F0010EDEEF23F0000E016E026A42
:1047C000E2EF23F0120001500302F3CF05F0F4CF23
:1047D00006F001500402F350062602500302F35083
:1047E000062605C001F006C002F0F7EF23F0120024
:1047F000D08EF28EF28C9E909D809F80CD8ECD804B
:10480000CD92CD50CF0B2009CD6EF290F286F2887A
:10481000F292F19C12000101006F0FEF24F0ACA2A4
:1048200014EF24F016EF24F00FEF24F018EF24F02B
:1048300000C1ADFF1200016E1EEF24F0ACA223EF09
:1048400024F025EF24F01EEF24F027EF24F001C020
:10485000ADFF1200D38CD38AD3889B8C1200286EB4
:07486000756C6C29000300D8
:0248680012003C
:020000040020DA
:08000000FFFFFFFFFFFFFFFF00
:020000040030CA
:0E000000FF881F00FF8181FF0FC00FE00F403F
:00000001FF
