:020000040000FA
:10000000896AFF0EE8CF92FF8C6A956A89B806EF7D
:1000100000F089BA06EF00F089B606EF00F08C6AAE
:100020008C2AC80E156EC80E146E00000000142E27
:10003000FCD7152EF8D78C36C80E156EC80E146E68
:1000400000000000142EFCD7152EF8D78C36C80EF1
:10005000156EC80E146E00000000142EFCD7152E6D
:10006000F8D78C36C80E156EC80E146E000000004E
:0E007000142EFCD7152EF8D78C3606EF00F0B4
:02007E00000080
:020000040030CA
:0100010008F6
:010003001EDE
:00000001FF
