:020000040000FA
:040000003CEF00F0E1
:06000800658211ED04F019
:100018006580D8CF49F0E8CF4AF0E0CF4BF0D9CF90
:100028004CF0DACF4DF09EAA1CEF00F01EEF00F066
:1000380030EF00F0ABA223EF00F025EF00F02AEF3D
:1000480000F0AB9800F0AB882AEF00F085EC08F0E0
:1000580030EF00F030EF00F04DC0DAFF4CC0D9FFB0
:100068004BC0E0FF4AC0E8FF49C0D8FF65901000C8
:10007800F6EF07F0000ECB6E9494A9EC08F0CA8452
:10008800CA50FC0B0109CA6EBD50F00B0C09BD6EBD
:100098004EEF00F03AEC09F04EC0F4F04FC0F5F026
:1000A800FA0E0001F66F7F0EF76FB1EC05F0000154
:1000B800F451F511D8B463EF00F065EF00F079EF73
:1000C80000F0C1EC07F0000E166E000E156E000E63
:1000D800146E000E136E000E626E000E616E000E3E
:1000E800646E010E636E4EEF00F03AEC09F04EC0FC
:1000F800F4F04FC0F5F0C10E0001F66F7F0EF76FF8
:10010800B1EC05F00001F451F511D8B48EEF00F010
:1001180090EF00F094EF00F04DEC09F04EEF00F096
:100128003AEC09F04EC0F4F04FC0F5F0C80E0001EB
:10013800F66F7F0EF76FB1EC05F00001F451F51181
:10014800D8B4A9EF00F0ABEF00F0EDEF00F03AEC17
:1001580009F04EC0F4F04FC0F5F0910E0001F66FB3
:100168007F0EF76FB1EC05F00001F451F511D8B42A
:10017800C0EF00F0C2EF00F0CAEF00F0000E566EBC
:10018800010E556E29EC08F04EEF00F03AEC09F03C
:100198004EC0F4F04FC0F5F0A10E0001F66F7F0ECF
:1001A800F76FB1EC05F00001F451F511D8B4DFEFA9
:1001B80000F0E1EF00F04EEF00F0000E566E020E78
:1001C800556E29EC08F04EEF00F04EEF00F04EEFC0
:1001D80000F03AEC09F04EC0F4F04FC0F5F0CE0E46
:1001E8000001F66F7F0EF76FB1EC05F00001F451D6
:1001F800F511D8B402EF01F004EF01F0BCEF03F001
:10020800000E166E010E156E3AEC09F04EC0F4F0B1
:100218004FC0F5F0990E0001F66F7F0EF76FB1EC45
:1002280005F00001F451F511D8B41DEF01F01FEFEE
:1002380001F0B3EF01F03AEC09F04EC0F4F04FC012
:10024800F5F0F10E0001F66F7E0EF76FB1EC05F0D8
:100258000001F451F511D8B434EF01F036EF01F094
:1002680042EF01F0000E566E010E556E000E586EEC
:10027800010E576EF8EC06F04EEF00F03AEC09F07C
:100288004EC0F4F04FC0F5F0190E0001F66F7F0E66
:10029800F76FB1EC05F00001F451F511D8B457EF40
:1002A80001F059EF01F065EF01F0000E566E010EF6
:1002B800556E000E586E020E576EF8EC06F04EEFB3
:1002C80000F03AEC09F04EC0F4F04FC0F5F0410EE2
:1002D8000001F66F7F0EF76FB1EC05F00001F451E5
:1002E800F511D8B47AEF01F07CEF01F088EF01F056
:1002F800000E566E010E556E000E586E030E576EA8
:10030800F8EC06F04EEF00F03AEC09F04EC0F4F0CD
:100318004FC0F5F0690E0001F66F7F0EF76FB1EC74
:1003280005F00001F451F511D8B49DEF01F09FEFED
:1003380001F04EEF00F0000E566E010E556E000EE5
:10034800586E040E576EF8EC06F04EEF00F04EEFC4
:1003580000F04EEF00F04EEF00F04EEF00F03AECF8
:1003680009F04EC0F4F04FC0F5F0A90E0001F66F89
:100378007F0EF76FB1EC05F00001F451F511D8B418
:10038800C8EF01F0CAEF01F05EEF02F03AEC09F0B5
:100398004EC0F4F04FC0F5F0FB0E0001F66F7E0E74
:1003A800F76FB1EC05F00001F451F511D8B4DFEFA7
:1003B80001F0E1EF01F0EDEF01F0000E566E020ED4
:1003C800556E000E586E010E576EF8EC06F04EEFA3
:1003D80000F03AEC09F04EC0F4F04FC0F5F0230EEF
:1003E8000001F66F7F0EF76FB1EC05F00001F451D4
:1003F800F511D8B402EF02F004EF02F010EF02F0AA
:10040800000E566E020E556E000E586E020E576E96
:10041800F8EC06F04EEF00F03AEC09F04EC0F4F0BC
:100428004FC0F5F04B0E0001F66F7F0EF76FB1EC81
:1004380005F00001F451F511D8B425EF02F027EFCB
:1004480002F033EF02F0000E566E020E556E000EEB
:10045800586E030E576EF8EC06F04EEF00F03AECCB
:1004680009F04EC0F4F04FC0F5F0730E0001F66FBE
:100478007F0EF76FB1EC05F00001F451F511D8B417
:1004880048EF02F04AEF02F04EEF00F0000E566E11
:10049800020E556E000E586E040E576EF8EC06F0FC
:1004A8004EEF00F04EEF00F04EEF00F04EEF00F090
:1004B8004EEF00F03AEC09F04EC0F4F04FC0F5F002
:1004C800B10E0001F66F7F0EF76FB1EC05F0000179
:1004D800F451F511D8B473EF02F075EF02F009EF9B
:1004E80003F03AEC09F04EC0F4F04FC0F5F0050EF9
:1004F8000001F66F7F0EF76FB1EC05F00001F451C3
:10050800F511D8B48AEF02F08CEF02F098EF02F000
:10051800000E566E030E556E000E586E010E576E85
:10052800F8EC06F04EEF00F03AEC09F04EC0F4F0AB
:100538004FC0F5F02D0E0001F66F7F0EF76FB1EC8E
:1005480005F00001F451F511D8B4ADEF02F0AFEFAA
:1005580002F0BBEF02F0000E566E030E556E000E51
:10056800586E020E576EF8EC06F04EEF00F03AECBB
:1005780009F04EC0F4F04FC0F5F0550E0001F66FCB
:100588007F0EF76FB1EC05F00001F451F511D8B406
:10059800D0EF02F0D2EF02F0DEEF02F0000E566E5E
:1005A800030E556E000E586E030E576EF8EC06F0EB
:1005B8004EEF00F03AEC09F04EC0F4F04FC0F5F001
:1005C8007D0E0001F66F7F0EF76FB1EC05F00001AC
:1005D800F451F511D8B4F3EF02F0F5EF02F04EEF55
:1005E80000F0000E566E030E556E000E586E040E87
:1005F800576EF8EC06F04EEF00F04EEF00F04EEFBD
:1006080000F04EEF00F04EEF00F03AEC09F04EC06B
:10061800F4F04FC0F5F0B90E0001F66F7F0EF76FDA
:10062800B1EC05F00001F451F511D8B41EEF03F058
:1006380020EF03F04EEF00F03AEC09F04EC0F4F072
:100648004FC0F5F00F0E0001F66F7F0EF76FB1EC9B
:1006580005F00001F451F511D8B435EF03F037EF88
:1006680003F043EF03F0000E566E040E556E000EB5
:10067800586E010E576EF8EC06F04EEF00F03AECAB
:1006880009F04EC0F4F04FC0F5F0370E0001F66FD8
:100698007F0EF76FB1EC05F00001F451F511D8B4F5
:1006A80058EF03F05AEF03F066EF03F0000E566EB2
:1006B800040E556E000E586E020E576EF8EC06F0DA
:1006C8004EEF00F03AEC09F04EC0F4F04FC0F5F0F0
:1006D8005F0E0001F66F7F0EF76FB1EC05F00001B9
:1006E800F451F511D8B47BEF03F07DEF03F089EFF7
:1006F80003F0000E566E040E556E000E586E030E73
:10070800576EF8EC06F04EEF00F03AEC09F04EC0E8
:10071800F4F04FC0F5F0870E0001F66F7F0EF76F0B
:10072800B1EC05F00001F451F511D8B49EEF03F0D7
:10073800A0EF03F04EEF00F0000E566E040E556E5B
:10074800000E586E040E576EF8EC06F04EEF00F0EF
:100758004EEF00F04EEF00F04EEF00F04EEF00F0DD
:100768004EEF00F04EEF00F04EEF00F04EEF00F0CD
:100778003AEC09F04EC0F4F04FC0F5F0FC0E000161
:10078800F66F7F0EF76FB1EC05F00001F451F5112B
:10079800D8B4D1EF03F0D3EF03F0E0EF03F0610436
:1007A8006210D8A4DAEF03F0DCEF03F0E0EF03F017
:1007B800BCEC08F04EEF00F03AEC09F04EC0F4F053
:1007C8004FC0F5F0DD0E0001F66F7F0EF76FB1EC4C
:1007D80005F00001F451F511D8B4F5EF03F0F7EF87
:1007E80003F04EEF00F0010E1B24556E000E1C2086
:1007F800566E29EC08F04EEF00F04EEF00F04EEF89
:1008080000F04EEF00F04EEF00F04EEF00F04EEF2C
:1008180000F04EEF00F03CEF00F00600D9CF41F0B9
:10082800DACF42F0A1A21BEF04F01DEF04F01EEF97
:1008380004F0A1929EA023EF04F025EF04F0B6EF98
:1008480004F0114A122A194A1A2A1950591807E1AC
:100858001A505A18D8A433EF04F035EF04F07CEF9F
:1008680004F0000E1A6E000E196E174A182A0A0EA6
:10087800BE6E1BC03DF01CC03EF03D3A3E3AF00E45
:100888003E163D500F0B3E12F00E3D16D00E3F6E39
:10089800000E406E3D503F263E504022D8901734FF
:1008A800D96E1834DA6E3F50D9264050DA22DF501C
:1008B800CB6E070E17181810D8A465EF04F067EF71
:1008C80004F06DEF04F0000E186E000E176E6DEF59
:1008D80004F05F506010D8A474EF04F076EF04F0D1
:1008E8007CEF04F0000ECB6E7CEF04F07CEF04F09C
:1008F80011C035F012C036F05DC037F05EC038F078
:100908008CEC06F035C03DF036C03EF05DC035F0E9
:100918005EC036F0000E386E020E376E3BEC05F006
:1009280035503D5C3E50800A3F6E3650800A3F5835
:10093800D8B0A1EF04F0A3EF04F0A9EF04F08C8085
:100948008C828C848C86AFEF04F08C908C928C9483
:100958008C96AFEF04F0750ECF6E300ECE6E9E9073
:10096800B6EF04F042C0DAFF41C0D9FF659211002A
:100978004EC0F0F04FC0F1F050C0F2F051C0F3F0AB
:100988005206D8A05306522806E15328D8A4CFEF20
:1009980004F0D1EF04F0E5EF04F0000E4F6E000E06
:1009A8004E6E3AEF05F03AEF05F0E5EF04F000017E
:1009B800F04BF12BF24BF32B5206D8A05306E5EF80
:1009C80004F0F0C0D9FFF1C0DAFFDF50D8B4EFEF80
:1009D80004F0F1EF04F020EF05F0F2C0F6FFF3C0E9
:1009E800F7FF0800F5500009D8B4FDEF04F0FFEF59
:1009F80004F020EF05F052505310D8B406EF05F07C
:100A080008EF05F020EF05F0F0C0D9FFF1C0DAFFDC
:100A1800DF50546EF2C0F6FFF3C0F7FF0800F55040
:100A28005418D8B41AEF05F01CEF05F0DBEF04F00A
:100A380020EF05F020EF05F0F2C0F6FFF3C0F7FF56
:100A48000800F550546E556A541E551E544A552ACE
:100A5800F0C0D9FFF1C0DAFFDF50566E565054246B
:100A68004E6E000E55204F6E3AEF05F01200000E44
:100A78003A6E38BE44EF05F042EF05F04CEF05F052
:100A8800376C381ED8B0382A010E3A6E4CEF05F094
:100A980036BE53EF05F051EF05F05BEF05F0356C0E
:100AA800361ED8B0362A010E3A1A5BEF05F0000E52
:100AB8003C6E000E3B6E37503810D8B466EF05F028
:100AC80068EF05F09CEF05F0010E396E72EF05F046
:100AD800D89037363836392A72EF05F038AE77EFC6
:100AE80005F079EF05F06CEF05F07DEF05F07DEF8F
:100AF80005F0D8903B363C363750355C3850365880
:100B0800D8A089EF05F08BEF05F092EF05F037508C
:100B1800355E3850365A3B8092EF05F0D89038321F
:100B28003732392E7DEF05F09CEF05F09CEF05F08C
:100B38003A50D8B4A2EF05F0A4EF05F0AAEF05F0FB
:100B48003B6C3C1ED8B03C2AAAEF05F03BC035F000
:100B58003CC036F0B0EF05F012000001F651F71175
:100B6800D8B4B9EF05F0BBEF05F019EF06F0F6C001
:100B78004EF0F7C04FF08CEC07F04EC057F04FC066
:100B880058F0FDEF05F0F4C04EF0F5C04FF0F6C098
:100B980050F0F7C051F057C052F058C053F0BCECB9
:100BA80004F04E504F10D8A4DCEF05F0DEEF05F04E
:100BB800E6EF05F0F4C0F4F0F5C0F5F01FEF06F02D
:100BC8001FEF06F0010E0001F4254E6E000EF52110
:100BD8004F6EF6C0F6FFF7C0F7FF0800F550506EED
:100BE800516A59EC08F04EC0F4F04FC0F5F0FDEF33
:100BF80005F00001F451F511D8B405EF06F007EF40
:100C080006F019EF06F0F4C0D9FFF5C0DAFFDF509F
:100C1800D8A411EF06F013EF06F0C7EF05F019EFAF
:100C280006F019EF06F019EF06F0000EF46F000E4B
:100C3800F56F1FEF06F01200000E486E44BE29EF54
:100C480006F027EF06F031EF06F0436C441ED8B0EB
:100C5800442A010E486E31EF06F046BE38EF06F022
:100C680036EF06F03EEF06F0456C461ED8B0462A31
:100C78003EEF06F045504610D8B445EF06F047EF72
:100C880006F077EF06F0010E476E51EF06F0D890A8
:100C980045364636472A51EF06F046AE56EF06F07F
:100CA80058EF06F04BEF06F05CEF06F05CEF06F04D
:100CB8004550435C46504458D8A065EF06F067EFAE
:100CC80006F06DEF06F04550435E4650445A6DEF0E
:100CD80006F0D89046324532472E5CEF06F077EFA3
:100CE80006F077EF06F04850D8B47DEF06F07FEFB6
:100CF80006F085EF06F0436C441ED8B0442A85EF11
:100D080006F043C043F044C044F08BEF06F01200F5
:100D1800000E3A6E36BE95EF06F093EF06F09DEFA3
:100D280006F0356C361ED8B0362A010E3A6E9DEFA5
:100D380006F038BEA4EF06F0A2EF06F0AAEF06F020
:100D4800376C381ED8B0382AAAEF06F0375038105A
:100D5800D8B4B1EF06F0B3EF06F0E3EF06F0010EFA
:100D6800396EBDEF06F0D89037363836392ABDEFE0
:100D780006F038AEC2EF06F0C4EF06F0B7EF06F0A3
:100D8800C8EF06F0C8EF06F03750355C38503658D3
:100D9800D8A0D1EF06F0D3EF06F0D9EF06F0375020
:100DA800355E3850365AD9EF06F0D8903832373297
:100DB800392EC8EF06F0E3EF06F0E3EF06F03A50FD
:100DC800D8B4E9EF06F0EBEF06F0F1EF06F0356C7A
:100DD800361ED8B0362AF1EF06F035C035F036C0E9
:100DE80036F0F7EF06F01200D40E4F6E7F0E506EFD
:100DF80049EC07F0C1EC07F0D89057345D6E5834D1
:100E08005E6E9580958295849586040E55185610C9
:100E1800D8A411EF07F013EF07F019EF07F095903A
:100E280095929594959648EF07F0030E551856102D
:100E3800D8A421EF07F023EF07F028EF07F09590EB
:100E48009592959448EF07F0020E55185610D8A4BD
:100E580030EF07F032EF07F036EF07F095909592F4
:100E680048EF07F055045610D8A43DEF07F03FEFC0
:100E780007F048EF07F0959048EF07F048EF07F0C4
:100E880048EF07F048EF07F01200000E546E000E0E
:100E9800536E6BEF07F053504F24516E545050204F
:100EA800526E51C0F6FF52C0F7FFF86A050EF7649C
:100EB80003D00800F55005D0F6CFE9FFF7CFEAFFD9
:100EC800EF50EEEC08F0534A542A6BEF07F05350FA
:100ED8004F24516E54505020526E51C0F6FF52C0EC
:100EE800F7FFF86A050EF76403D00800F55005D03F
:100EF800F6CFE9FFF7CFEAFFEF500009D8A487EF54
:100F080007F089EF07F04FEF07F08BEF07F01200BB
:100F18004EC052F04FC053F096EF07F04E4A4F2A9A
:100F280096EF07F04EC0F6FF4FC0F7FFF86A050EC0
:100F3800F76403D00800F55005D0F6CFE9FFF7CFE6
:100F4800EAFFEF500009D8A4ACEF07F0AEEF07F0C6
:100F580092EF07F0B0EF07F052C050F053C051F0D5
:100F6800501E511E504A512A4E5050244E6E4F501A
:100F780051204F6EC0EF07F01200000E4F6E000EAA
:100F88004E6E4FBED1EF07F04F5009E10A0E4E5C8E
:100F9800D8A0D1EF07F0D3EF07F0D7EF07F0F1EFC4
:100FA80007F0F1EF07F02B0E4E24D96E000E4F20FC
:100FB800DA6E000EDF6E4E4A4F2A4FBEEDEF07F095
:100FC8004F5009E10A0E4E5CD8A0EDEF07F0EFEFA5
:100FD80007F0D7EF07F0F1EF07F0000E1E6E000ED6
:100FE8001D6E1200BC0EF66E110EF76E000EF86E36
:100FF80000EED0F010EE20F00900F5CFEEFFE5503E
:10100800E150FAE1820EF66E120EF76E000EF86EDF
:1010180000EE59F010EE0CF00900F5CFEEFFE550A8
:10102800E150FAE100EE80F0500EEE6AE806FDE1CC
:1010380000EE01F0340EEE6AE806FDE16590659277
:10104800000EF86E00013EEF00F0000E626E010E19
:10105800616EDF0E4F6E7F0E506E49EC07F055043F
:101068005610D8A43AEF08F03CEF08F042EF08F029
:10107800000E1C6E000E1B6E42EF08F0020E551893
:101088005610D8A44AEF08F04CEF08F052EF08F0D9
:10109800000E1C6E010E1B6E52EF08F0C1EC07F03B
:1010A800000E606E010E5F6E12004EC0D9FF4FC079
:1010B800DAFF5050DE18D8A464EF08F066EF08F0A5
:1010C8006EEF08F04EC04EF04FC04FF084EF08F0BE
:1010D80084EF08F04EC0D9FF4FC0DAFF4E4A4F2ABE
:1010E800DF50D8A47AEF08F07CEF08F059EF08F049
:1010F8007EEF08F0000E4E6E000E4F6E84EF08F083
:1011080012002B0E1D24D96E000E1E20DA6EAECFF3
:10111800DFFF2B0E1D24D96E000E1E20DA6EDF5065
:10112800FDEC08F01D4A1E2A1DC043F01EC044F005
:10113800000E466E0A0E456E20EC06F043C01DF008
:1011480044C01EF0A8EF08F0120032EC09F00CECD5
:1011580009F056EC09F019EC09F057EC09F052ECDB
:1011680009F0CDEC08F047EC09F026EC09F0120084
:10117800000E626E000E616EDA0E4F6E7F0E506EBC
:1011880049EC07F0C1EC07F0000E606E000E5F6ED0
:101198001200948C948EAC98B896AC84330EAF6ED3
:1011A800AB8E9E889E9AAC8AAB889D989F989D8AA4
:1011B8009F9A1200FA00FA0000000000F401F401FE
:1011C80000000000FA00FA00F401F401FA00FA0045
:1011D800F401F4014E6EF1EF08F0ACA2F6EF08F05E
:1011E800F8EF08F0F1EF08F0FAEF08F04EC0ADFFA5
:1011F8001200436E00EF09F0ACA205EF09F007EF0B
:1012080009F000EF09F009EF09F043C0ADFF120043
:10121800B180B18E300EB112B192A082A192A28299
:10122800F00EB36EBD0EB26E12009D809E909F8030
:10123800CD8ECD80300ECD12CD92C20ECF6EF60E71
:10124800CE6E120092680E0EC16EC08EC080C08233
:10125800C084000EC46E000EC36E1200D38CD38AF5
:10126800D398D3508F0B6009D36E12002B0E4E6E9D
:10127800000E4F6E40EF09F012000100000003005D
:101288000100010001009494090EBD6E9E949F8494
:101298001200000E146E010E136E1200D08EF28E24
:0812A800F28C1200120012008A
:107EF00000626C696E6B2031203100626C696E6BC0
:107F00002032203100626C696E6B203320310062B8
:107F10006C696E6B2034203100626C696E6B2031AD
:107F2000203200626C696E6B2032203200626C6914
:107F30006E6B2033203200626C696E6B203420320D
:107F400000626C696E6B2031203300626C696E6B6D
:107F50002032203300626C696E6B20332033006264
:107F60006C696E6B2034203300626C696E6B20315B
:107F7000203400626C696E6B2032203400626C69C0
:107F80006E6B2033203400626C696E6B20342034B9
:107F9000006D75736963203100626C696E6B20310E
:107FA000006D75736963203200626C696E6B2032FC
:107FB00000626C696E6B203300626C696E6B2034FA
:107FC00000627265617468006D7573696300626C4C
:107FD000696E6B00656E7465720073746F7000700B
:107FE0006C617900494E46004E414E00696E660054
:0F7FF0006E616E00256C66005600710073000014
:020000040020DA
:08000000FFFFFFFFFFFFFFFF00
:020000040030CA
:0E000000FF881F00FF8381FF0FC00FE00F403D
:00000001FF
