:020000040000FA
:0200000004D02A
:020002000000FC
:08000800B0D1D38CD38AD39848
:10001000926AE86A956A836A8C6AF288F292F28E32
:10002000F19CF286F290F19A01EE33F011EE34F089
:10003000840E926A9226E86A92B0E88092B2E882D0
:1000400092B4E88492B6E886EF6EE86A92B8E880E7
:1000500092BAE88292BCE88492BEE886E76E01EE2E
:1000600023F011EE24F0840E926A9226E86A92B090
:10007000E88092B2E88292B4E88492B6E886EF6EA5
:10008000E86A92B8E88092BAE88292BCE88492BEAC
:10009000E886E76E8C68BCD701EE33F011EE34F0E1
:1000A0008C6AB40E156EC80E146E000000000000BD
:1000B0000000142E55EF00F0152E53EF00F0B40E93
:1000C000156EC80E146E0000000000000000142E13
:1000D00063EF00F0152E61EF00F0EF508C6A8C2674
:1000E000B40E156EC80E146E000000000000000073
:1000F000142E74EF00F0152E72EF00F0B40E156E92
:10010000C80E146E0000000000000000142E82EFE4
:1001100000F0152E80EF00F0B40E156EC80E146EB0
:100120000000000000000000142E90EF00F0152EDB
:100130008EEF00F0B40E156EC80E146E00000000B5
:1001400000000000142E9EEF00F0152E9CEF00F032
:100150008C6AB40E156EC80E146E0000000000000C
:100160000000142EADEF00F0152EABEF00F0B40E32
:10017000156EC80E146E0000000000000000142E62
:10018000BBEF00F0152EB9EF00F0E7508C6A8C261B
:10019000B40E156EC80E146E0000000000000000C2
:1001A000142ECCEF00F0152ECAEF00F0B40E156E31
:1001B000C80E146E0000000000000000142EDAEFDC
:1001C00000F0152ED8EF00F0B40E156EC80E146EA8
:1001D0000000000000000000142EE8EF00F0152ED3
:1001E000E6EF00F0B40E156EC80E146E00000000AD
:1001F00000000000142EF6EF00F0152EF4EF00F0D2
:10020000120001EE23F011EE24F0B40E156EC80EAC
:10021000146E0000000000000000142E09EF01F031
:10022000152E07EF01F0B40E156EC80E146E000007
:10023000000000000000142E17EF01F0152E15EF3E
:1002400001F0EF508C6A8C26B40E156EC80E146E39
:100250000000000000000000142E28EF01F0152E11
:1002600026EF01F0B40E156EC80E146E00000000EB
:1002700000000000142E36EF01F0152E34EF01F0CF
:10028000B40E156EC80E146E0000000000000000D1
:10029000142E44EF01F0152E42EF01F0B40E156E4E
:1002A000C80E146E0000000000000000142E52EF73
:1002B00001F0152E50EF01F08C6AB40E156EC80EC9
:1002C000146E0000000000000000142E61EF01F029
:1002D000152E5FEF01F0B40E156EC80E146E0000FF
:1002E000000000000000142E6FEF01F0152E6DEFDE
:1002F00001F0E7508C6A8C26B40E156EC80E146E91
:100300000000000000000000142E80EF01F0152E08
:100310007EEF01F0B40E156EC80E146E00000000E2
:1003200000000000142E8EEF01F0152E8CEF01F06E
:10033000B40E156EC80E146E000000000000000020
:10034000142E9CEF01F0152E9AEF01F0B40E156EED
:10035000C80E146E0000000000000000142EAAEF6A
:1003600001F0152EA8EF01F01200F2B295DEF29224
:08037000F2B047DFF29010002B
:020000040030CA
:0100010008F6
:010002001FDE
:010003001EDE
:010005008179
:010006008178
:010008000FE8
:01000900C036
:01000A000FE6
:01000B00E014
:01000C000FE4
:01000D0040B2
:00000001FF
