:020000040000FA
:040000003CEF00F0E1
:060008007E8254ED11F0B0
:100018007E80D8CF06F1E8CF07F1E0CF08F1D9CF3D
:1000280009F1DACF0AF19EAA1CEF00F01EEF00F0EA
:1000380030EF00F0ABA223EF00F025EF00F02AEF3D
:1000480000F0AB9800F0AB882AEF00F086EC1EF0C9
:1000580030EF00F030EF00F00AC1DAFF09C1D9FF34
:1000680008C1E0FF07C1E8FF06C1D8FF7E90100075
:040078009FEF1DF0E9
:1006000000303A25642025640D00313A25640D0040
:10061000323A25640D0068685800686864006868AC
:10062000690068686E0068686F00686875006868CF
:1006300078007A58007A64007A69007A6E007A6FDE
:10064000007A75007A78000045C0D9FF46C0DAFF0D
:10065000DECFF6FFDDCFF7FF0800F550250AD8A45E
:1006600034EF03F036EF03F00CEF0EF045C0D9FF86
:1006700046C0DAFFDE2A000EDD22000E0001C86F40
:10068000000EC76FC7C07CF0C8C07DF0C969CA69D9
:10069000000E506E000E4F6EB6EF03F08AEF03F0BF
:1006A0007C8045C0D9FF46C0DAFFDE2A000EDD227D
:1006B000B6EF03F07C8245C0D9FF46C0DAFFDE2AE0
:1006C000000EDD22B6EF03F07C8445C0D9FF46C0A2
:1006D000DAFFDE2A000EDD22B6EF03F07C8645C08D
:1006E000D9FF46C0DAFFDE2A000EDD22B6EF03F0A6
:1006F0007C8845C0D9FF46C0DAFFDE2A000EDD2225
:10070000B6EF03F0000E506E010E4F6EB6EF03F021
:10071000B6EF03F045C0D9FF46C0DAFFDECFF6FFE3
:10072000DDCFF7FF0800F550496E4A6A4A50000ACB
:10073000D8B49DEF03F082EF03F04950200AD8B4FB
:100740006EEF03F0030AD8B478EF03F0080AD8B4C8
:1007500064EF03F0060AD8B450EF03F01D0AD8B4D2
:100760005AEF03F082EF03F0B6EF03F04F50501052
:10077000D8B4BDEF03F0BFEF03F08AEF03F07CA025
:10078000C4EF03F0C6EF03F0C9EF03F07C92C9EFAA
:1007900003F045C0D9FF46C0DAFFDECFF6FFDDCF5C
:1007A000F7FF0800F5502A0AD8A4D9EF03F0DBEFD1
:1007B00003F007EF04F045C0D9FF46C0DAFFDE2A98
:1007C000000EDD2247C0D9FF48C0DAFFDFCF49F075
:1007D000020EDE26DFCF4AF0000EDD2249C0D9FF2F
:1007E0004AC0DAFFDECFC7F0DDCFC8F00001C8BFD6
:1007F000FEEF03F0FCEF03F066EF04F07C80C76DC2
:10080000C81FD8B0C82B66EF04F066EF04F045C0EF
:10081000D9FF46C0DAFFDECF08F0DDCF09F0F8ECF3
:1008200014F008C0C7F009C0C8F020EF04F045C0BC
:10083000D9FF46C0DAFFDE2A000EDD2220EF04F0E9
:10084000D00E496EFF0E4A6E45C0D9FF46C0DAFF92
:10085000DECFF6FFDDCFF7FF0800F5504B6E4C6A98
:1008600049504B264A504C224C500AE10A0E4B5C30
:10087000D8A03DEF04F040EF04F0010E41EF04F08A
:10088000000E516E526A59EF04F045C0D9FF46C0C0
:10089000DAFFDECFF6FFDDCFF7FF0800F550016E7F
:1008A000026A92EC1FF001C051F002C052F059EF01
:1008B00004F051505210D8A460EF04F062EF04F03D
:1008C00017EF04F066EF04F066EF04F045C0D9FFBF
:1008D00046C0DAFFDECFF6FFDDCFF7FF0800F550A8
:1008E0002E0AD8A476EF04F078EF04F014EF05F0A8
:1008F000000E0001CA6F000EC96F45C0D9FF46C087
:10090000DAFFDE2A000EDD2245C0D9FF46C0DAFF3D
:10091000DECFF6FFDDCFF7FF0800F5502A0AD8A496
:1009200094EF04F096EF04F0B3EF04F045C0D9FF64
:1009300046C0DAFFDE2A000EDD2247C0D9FF48C0DC
:10094000DAFFDFCF49F0020EDE26DFCF4AF0000EDD
:10095000DD2249C0D9FF4AC0DAFFDECFC9F0DDCFC2
:10096000CAF014EF05F045C0D9FF46C0DAFFDECF6C
:1009700008F0DDCF09F0F8EC14F008C0C9F009C0A8
:10098000CAF0CCEF04F045C0D9FF46C0DAFFDE2A3A
:10099000000EDD22CCEF04F0D00E496EFF0E4A6E41
:1009A00045C0D9FF46C0DAFFDECFF6FFDDCFF7FF47
:1009B0000800F5504B6E4C6A49504B264A504C2269
:1009C0004C500AE10A0E4B5CD8A0E9EF04F0ECEFC2
:1009D00004F0010EEDEF04F0000E536E546A05EFC3
:1009E00005F045C0D9FF46C0DAFFDECFF6FFDDCF08
:1009F000F7FF0800F550016E026A92EC1FF001C08B
:100A000053F002C054F005EF05F053505410D8A431
:100A10000CEF05F00EEF05F0C3EF04F014EF05F056
:100A200014EF05F014EF05F045C0D9FF46C0DAFF1A
:100A3000DECFF6FFDDCFF7FF0800F550630AD8A43C
:100A400024EF05F026EF05F04FEF05F045C0D9FF84
:100A500046C0DAFFDE2A000EDD2247C0D9FF48C0BB
:100A6000DAFFDFCF49F0020EDE26DFCF4AF0000EBC
:100A7000DD2249C0D9FF4AC0DAFFDF505F6E43C0B4
:100A80001CF044C01DF05FC01EF0D0EC1DF01CC077
:100A900043F01DC044F02BEF0EF02BEF0EF045C0DD
:100AA000D9FF46C0DAFFDECF01F0DDCF02F01A0E2B
:100AB000036E060E046E000E066E030E056E23EC2A
:100AC0001AF001500210D8B468EF05F06AEF05F093
:100AD00087EF05F045C0D9FF46C0DAFFDECF01F051
:100AE000DDCF02F01E0E036E060E046E000E066EC3
:100AF000030E056E23EC1AF001500210D8A483EF08
:100B000005F085EF05F0C9EF05F087EF05F0030E5E
:100B100045C0D9FF46C0DAFFDE26000EDD2247C001
:100B2000D9FF48C0DAFFDFCF49F0020EDE26DFCF63
:100B30004AF0000EDD2249C0D9FF4AC0DAFFDF507B
:100B4000556E000E55BEFF0E566E576E586E596E9E
:100B50005A6E5B6E5C6E43C01CF044C01DF055C005
:100B60001EF056C01FF057C020F058C021F059C0E9
:100B700022F05AC023F05BC024F05CC025F0C7EC23
:100B80000FF01CC043F01DC044F02BEF0EF02BEF14
:100B90000EF045C0D9FF46C0DAFFDECF01F0DDCF51
:100BA00002F01B0E036E060E046E000E066E020EA1
:100BB000056E23EC1AF001500210D8B4E2EF05F0F4
:100BC000E4EF05F001EF06F045C0D9FF46C0DAFFBB
:100BD000DECF01F0DDCF02F01F0E036E060E046EB5
:100BE000000E066E020E056E23EC1AF00150021084
:100BF000D8A4FDEF05F0FFEF05F044EF06F001EF9C
:100C000006F0020E45C0D9FF46C0DAFFDE26000E10
:100C1000DD2247C0D9FF48C0DAFFDFCF49F0020E1E
:100C2000DE26DFCF4AF0000EDD2249C0D9FF4AC0E0
:100C3000DAFFDECF55F0DDCF56F0000E56BEFF0EC8
:100C4000576E586E596E5A6E5B6E5C6E43C01CF0E8
:100C500044C01DF055C01EF056C01FF057C020F014
:100C600058C021F059C022F05AC023F05BC024F0D4
:100C70005CC025F0C7EC0FF01CC043F01DC044F071
:100C80002BEF0EF02BEF0EF045C0D9FF46C0DAFF78
:100C9000DECFF6FFDDCFF7FF0800F550640AD8B4C9
:100CA00054EF06F056EF06F06AEF06F045C0D9FFA4
:100CB00046C0DAFFDECFF6FFDDCFF7FF0800F550C4
:100CC000690AD8A466EF06F068EF06F0ACEF06F00C
:100CD0006AEF06F045C0D9FF46C0DAFFDE2A000EF3
:100CE000DD2247C0D9FF48C0DAFFDFCF49F0020E4E
:100CF000DE26DFCF4AF0000EDD2249C0D9FF4AC010
:100D0000DAFFDECF55F0DDCF56F0000E56BEFF0EF7
:100D1000576E586E596E5A6E5B6E5C6E43C01CF017
:100D200044C01DF055C01EF056C01FF057C020F043
:100D300058C021F059C022F05AC023F05BC024F003
:100D40005CC025F0C7EC0FF01CC043F01DC044F0A0
:100D50002BEF0EF02BEF0EF045C0D9FF46C0DAFFA7
:100D6000DECF01F0DDCF02F0350E036E060E046E0D
:100D7000000E066E020E056E23EC1AF001500210F2
:100D8000D8B4C5EF06F0C7EF06F0E4EF06F045C0B3
:100D9000D9FF46C0DAFFDECF01F0DDCF02F0380E1A
:100DA000036E060E046E000E066E020E056E23EC38
:100DB0001AF001500210D8A4E0EF06F0E2EF06F0BE
:100DC00028EF07F0E4EF06F0020E45C0D9FF46C059
:100DD000DAFFDE26000EDD2247C0D9FF48C0DAFF69
:100DE000DFCF49F0020EDE26DFCF4AF0000EDD2213
:100DF00049C0D9FF4AC0DAFFDECF4BF0DDCF4CF05F
:100E00004BC055F04CC056F0576A586A596A5A6A36
:100E10005B6A5C6A43C01CF044C01DF055C01EF004
:100E200056C01FF057C020F058C021F059C022F022
:100E30005AC023F05BC024F05CC025F0C7EC0FF073
:100E40001CC043F01DC044F02BEF0EF02BEF0EF052
:100E500045C0D9FF46C0DAFFDECF01F0DDCF02F09A
:100E6000260E036E060E046E000E066E030E056E51
:100E700023EC1AF001500210D8A441EF07F043EF21
:100E800007F084EF07F0030E45C0D9FF46C0DAFF34
:100E9000DE26000EDD2247C0D9FF48C0DAFFDFCFD3
:100EA00049F0020EDE26DFCF4AF0000EDD2249C0F7
:100EB000D9FF4AC0DAFFDF504B6E4B50606E616A5B
:100EC000626A636A646A656A666A676A43C01CF03C
:100ED00044C01DF060C01EF061C01FF062C020F071
:100EE00063C021F064C022F065C023F066C024F026
:100EF00067C025F0F1EC13F01CC043F01DC044F0B6
:100F00002BEF0EF02BEF0EF045C0D9FF46C0DAFFF5
:100F1000DECF01F0DDCF02F0270E036E060E046E69
:100F2000000E066E020E056E23EC1AF00150021040
:100F3000D8A49DEF07F09FEF07F0E3EF07F0020E54
:100F400045C0D9FF46C0DAFFDE26000EDD2247C0CD
:100F5000D9FF48C0DAFFDFCF49F0020EDE26DFCF2F
:100F60004AF0000EDD2249C0D9FF4AC0DAFFDECFC9
:100F70004BF0DDCF4CF04BC060F04CC061F0626ACA
:100F8000636A646A656A666A676A43C01CF044C043
:100F90001DF060C01EF061C01FF062C020F063C091
:100FA00021F064C022F065C023F066C024F067C061
:100FB00025F0F1EC13F01CC043F01DC044F02BEF02
:100FC0000EF02BEF0EF045C0D9FF46C0DAFFDECFA2
:100FD000F6FFDDCFF7FF0800F5506F0AD8A4F3EF56
:100FE00007F0F5EF07F038EF08F045C0D9FF46C02D
:100FF000DAFFDE2A000EDD2247C0D9FF48C0DAFF43
:10100000DFCF49F0020EDE26DFCF4AF0000EDD22F0
:1010100049C0D9FF4AC0DAFFDECF4BF0DDCF4CF03C
:101020004BC060F04CC061F0626A636A646A656AD2
:10103000666A676A43C01CF044C01DF060C01EF0C1
:1010400061C01FF062C020F063C021F064C022F0D4
:1010500065C023F066C024F067C025F0F1EC13F002
:101060001CC043F01DC044F02BEF0EF02BEF0EF030
:1010700045C0D9FF46C0DAFFDECF01F0DDCF02F078
:101080003E0E036E060E046E000E066E020E056E18
:1010900023EC1AF001500210D8A451EF08F053EFDE
:1010A00008F097EF08F0020E45C0D9FF46C0DAFFFE
:1010B000DE26000EDD2247C0D9FF48C0DAFFDFCFB1
:1010C00049F0020EDE26DFCF4AF0000EDD2249C0D5
:1010D000D9FF4AC0DAFFDECF4BF0DDCF4CF04BC07A
:1010E00060F04CC061F0626A636A646A656A666A4D
:1010F000676A43C01CF044C01DF060C01EF061C0B0
:101100001FF062C020F063C021F064C022F065C00F
:1011100023F066C024F067C025F0F1EC13F01CC08A
:1011200043F01DC044F02BEF0EF02BEF0EF045C046
:10113000D9FF46C0DAFFDECF01F0DDCF02F0220E8C
:10114000036E060E046E000E066E030E056E23EC93
:101150001AF001500210D8A4B0EF08F0B2EF08F076
:10116000DCEF08F0030E45C0D9FF46C0DAFFDE26EB
:10117000000EDD2247C0D9FF48C0DAFFDFCF49F0BB
:10118000020EDE26DFCF4AF0000EDD2249C0D9FF75
:101190004AC0DAFFDECF5DF0DDCF5EF05DC0D9FF83
:1011A0005EC0DAFFC5C0DFFF000E446E000E436E66
:1011B0002BEF0EF02BEF0EF045C0D9FF46C0DAFF43
:1011C000DECF01F0DDCF02F0230E036E060E046EBB
:1011D000000E066E020E056E23EC1AF0015002108E
:1011E000D8A4F5EF08F0F7EF08F023EF09F0020EAE
:1011F00045C0D9FF46C0DAFFDE26000EDD2247C01B
:10120000D9FF48C0DAFFDFCF49F0020EDE26DFCF7C
:101210004AF0000EDD2249C0D9FF4AC0DAFFDECF16
:101220005DF0DDCF5EF05DC0D9FF5EC0DAFFC5C006
:10123000DEFFC6C0DDFF000E446E000E436E2BEFD6
:101240000EF02BEF0EF045C0D9FF46C0DAFFDECF1F
:10125000F6FFDDCFF7FF0800F5506E0AD8A433EF94
:1012600009F035EF09F060EF09F045C0D9FF46C03D
:10127000DAFFDE2A000EDD2247C0D9FF48C0DAFFC0
:10128000DFCF49F0020EDE26DFCF4AF0000EDD226E
:1012900049C0D9FF4AC0DAFFDECF5DF0DDCF5EF096
:1012A0005DC0D9FF5EC0DAFFC5C0DEFFC6C0DDFF8E
:1012B000000E446E000E436E2BEF0EF02BEF0EF07F
:1012C00045C0D9FF46C0DAFFDECF01F0DDCF02F026
:1012D0003B0E036E060E046E000E066E020E056EC9
:1012E00023EC1AF001500210D8A479EF09F07BEF3B
:1012F00009F0A7EF09F0020E45C0D9FF46C0DAFF9A
:10130000DE26000EDD2247C0D9FF48C0DAFFDFCF5E
:1013100049F0020EDE26DFCF4AF0000EDD2249C082
:10132000D9FF4AC0DAFFDECF5DF0DDCF5EF05DC0F1
:10133000D9FF5EC0DAFFC5C0DEFFC6C0DDFF000E0C
:10134000446E000E436E2BEF0EF02BEF0EF045C0F7
:10135000D9FF46C0DAFFDECFF6FFDDCFF7FF08008A
:10136000F550700AD8A4B7EF09F0B9EF09F0FEEF15
:1013700009F045C0D9FF46C0DAFFDE2A000EDD22A3
:1013800047C0D9FF48C0DAFFDFCF49F0020EDE26A2
:10139000DFCF4AF0000EDD2249C0D9FF4AC0DAFF94
:1013A000DECF4BF0DDCF4CF04BC060F04CC061F0B5
:1013B000626A636A646A656A666A676A43C01CF047
:1013C00044C01DF060C01EF061C01FF062C020F07C
:1013D00063C021F064C022F065C023F066C024F031
:1013E00067C025F0780E266E2CEC0EF01CC043F082
:1013F0001DC044F02BEF0EF02BEF0EF045C0D9FFCF
:1014000046C0DAFFDECFF6FFDDCFF7FF0800F5506C
:10141000730AD8A40EEF0AF010EF0AF03DEF0AF0BD
:1014200045C0D9FF46C0DAFFDE2A000EDD2247C0E4
:10143000D9FF48C0DAFFDFCF49F0020EDE26DFCF4A
:101440004AF0000EDD2249C0D9FF4AC0DAFFDECFE4
:101450004DF0DDCF4EF043C00AF044C00BF04DC05C
:101460000CF04EC00DF0D7EC16F00AC043F00BC0E4
:1014700044F02BEF0EF02BEF0EF045C0D9FF46C025
:10148000DAFFDECF01F0DDCF02F02A0E036E060E8A
:10149000046E000E066E030E056E23EC1AF001506A
:1014A0000210D8A456EF0AF058EF0AF099EF0AF0AC
:1014B000030E45C0D9FF46C0DAFFDE26000EDD224E
:1014C00047C0D9FF48C0DAFFDFCF49F0020EDE2661
:1014D000DFCF4AF0000EDD2249C0D9FF4AC0DAFF53
:1014E000DF504B6E4B50606E616A626A636A646A79
:1014F000656A666A676A43C01CF044C01DF060C03C
:101500001EF061C01FF062C020F063C021F064C013
:1015100022F065C023F066C024F067C025F0DFEC40
:1015200012F01CC043F01DC044F02BEF0EF02BEF67
:101530000EF045C0D9FF46C0DAFFDECF01F0DDCFA7
:1015400002F02B0E036E060E046E000E066E020EE7
:10155000056E23EC1AF001500210D8A4B2EF0AF085
:10156000B4EF0AF0F8EF0AF0020E45C0D9FF46C00A
:10157000DAFFDE26000EDD2247C0D9FF48C0DAFFC1
:10158000DFCF49F0020EDE26DFCF4AF0000EDD226B
:1015900049C0D9FF4AC0DAFFDECF4BF0DDCF4CF0B7
:1015A0004BC060F04CC061F0626A636A646A656A4D
:1015B000666A676A43C01CF044C01DF060C01EF03C
:1015C00061C01FF062C020F063C021F064C022F04F
:1015D00065C023F066C024F067C025F0DFEC12F090
:1015E0001CC043F01DC044F02BEF0EF02BEF0EF0AB
:1015F00045C0D9FF46C0DAFFDECFF6FFDDCFF7FFEB
:101600000800F550750AD8A408EF0BF00AEF0BF0AC
:101610004DEF0BF045C0D9FF46C0DAFFDE2A000EC1
:10162000DD2247C0D9FF48C0DAFFDFCF49F0020E04
:10163000DE26DFCF4AF0000EDD2249C0D9FF4AC0C6
:10164000DAFFDECF4BF0DDCF4CF04BC060F04CC08A
:1016500061F0626A636A646A656A666A676A43C05F
:101660001CF044C01DF060C01EF061C01FF062C0DD
:1016700020F063C021F064C022F065C023F066C092
:1016800024F067C025F0DFEC12F01CC043F01DC051
:1016900044F02BEF0EF02BEF0EF045C0D9FF46C003
:1016A000DAFFDECF01F0DDCF02F0410E036E060E51
:1016B000046E000E066E020E056E23EC1AF0015049
:1016C0000210D8A466EF0BF068EF0BF0ACEF0BF054
:1016D000020E45C0D9FF46C0DAFFDE26000EDD222D
:1016E00047C0D9FF48C0DAFFDFCF49F0020EDE263F
:1016F000DFCF4AF0000EDD2249C0D9FF4AC0DAFF31
:10170000DECF4BF0DDCF4CF04BC060F04CC061F051
:10171000626A636A646A656A666A676A43C01CF0E3
:1017200044C01DF060C01EF061C01FF062C020F018
:1017300063C021F064C022F065C023F066C024F0CD
:1017400067C025F0DFEC12F01CC043F01DC044F070
:101750002BEF0EF02BEF0EF045C0D9FF46C0DAFF9D
:10176000DECF01F0DDCF02F02E0E036E060E046E0A
:10177000000E066E030E056E23EC1AF001500210E7
:10178000D8B4C5EF0BF0C7EF0BF0E4EF0BF045C09A
:10179000D9FF46C0DAFFDECF01F0DDCF02F0160E32
:1017A000036E060E046E000E066E030E056E23EC2D
:1017B0001AF001500210D8A4E0EF0BF0E2EF0BF0AA
:1017C0003AEF0CF0E4EF0BF045C0D9FF46C0DAFF6A
:1017D000DECF49F0DDCF4AF0020E4926000E4A2244
:1017E00049C0F6FF4AC0F7FF0800F5CF5FF0030ECF
:1017F00045C0D9FF46C0DAFFDE26000EDD2247C015
:10180000D9FF48C0DAFFDFCF49F0020EDE26DFCF76
:101810004AF0000EDD2249C0D9FF4AC0DAFFDF508E
:101820004B6E4B50606E616A626A636A646A656A95
:10183000666A676A43C01CF044C01DF060C01EF0B9
:1018400061C01FF062C020F063C021F064C022F0CC
:1018500065C023F066C024F067C025F05FC026F0A5
:101860002CEC0EF01CC043F01DC044F02BEF0EF02A
:101870002BEF0EF045C0D9FF46C0DAFFDECF01F0F6
:10188000DDCF02F02F0E036E060E046E000E066E04
:10189000020E056E23EC1AF001500210D8B453EF7B
:1018A0000CF055EF0CF072EF0CF045C0D9FF46C0BC
:1018B000DAFFDECF01F0DDCF02F0170E036E060E69
:1018C000046E000E066E020E056E23EC1AF0015037
:1018D0000210D8A46EEF0CF070EF0CF0CBEF0CF010
:1018E00072EF0CF045C0D9FF46C0DAFFDECF49F0F9
:1018F000DDCF4AF0010E4926000E4A2249C0F6FF0C
:101900004AC0F7FF0800F5CF5FF0020E45C0D9FFCF
:1019100046C0DAFFDE26000EDD2247C0D9FF48C0F0
:10192000DAFFDFCF49F0020EDE26DFCF4AF0000EED
:10193000DD2249C0D9FF4AC0DAFFDECF4BF0DDCF50
:101940004CF04BC060F04CC061F0626A636A646A3C
:10195000656A666A676A43C01CF044C01DF060C0D7
:101960001EF061C01FF062C020F063C021F064C0AF
:1019700022F065C023F066C024F067C025F05FC088
:1019800026F02CEC0EF01CC043F01DC044F02BEFF1
:101990000EF02BEF0EF045C0D9FF46C0DAFFDECFC8
:1019A000F6FFDDCFF7FF0800F550780AD8B4DBEF7B
:1019B0000CF0DDEF0CF0F1EF0CF045C0D9FF46C0A4
:1019C000DAFFDECFF6FFDDCFF7FF0800F550580A4B
:1019D000D8A4EDEF0CF0EFEF0CF041EF0DF0F1EFCC
:1019E0000CF045C0D9FF46C0DAFFDECFF6FFDDCFF1
:1019F000F7FF0800F5CF5FF045C0D9FF46C0DAFF1A
:101A0000DE2A000EDD2247C0D9FF48C0DAFFDFCF53
:101A100049F0020EDE26DFCF4AF0000EDD2249C07B
:101A2000D9FF4AC0DAFFDECF4BF0DDCF4CF04BC020
:101A300060F04CC061F0626A636A646A656A666AF3
:101A4000676A43C01CF044C01DF060C01EF061C056
:101A50001FF062C020F063C021F064C022F065C0B6
:101A600023F066C024F067C025F05FC026F02CECA0
:101A70000EF01CC043F01DC044F02BEF0EF02BEF16
:101A80000EF045C0D9FF46C0DAFFDECF01F0DDCF52
:101A900002F0440E036E060E046E000E066E020E79
:101AA000056E23EC1AF001500210D8B45AEF0DF075
:101AB0005CEF0DF079EF0DF045C0D9FF46C0DAFFBD
:101AC000DECF01F0DDCF02F0320E036E060E046EA3
:101AD000000E066E020E056E23EC1AF00150021085
:101AE000D8A475EF0DF077EF0DF0D2EF0DF079EF90
:101AF0000DF045C0D9FF46C0DAFFDECF49F0DDCF9B
:101B00004AF0010E4926000E4A2249C0F6FF4AC09B
:101B1000F7FF0800F5CF5FF0020E45C0D9FF46C0C1
:101B2000DAFFDE26000EDD2247C0D9FF48C0DAFF0B
:101B3000DFCF49F0020EDE26DFCF4AF0000EDD22B5
:101B400049C0D9FF4AC0DAFFDECF4BF0DDCF4CF001
:101B50004BC060F04CC061F0626A636A646A656A97
:101B6000666A676A43C01CF044C01DF060C01EF086
:101B700061C01FF062C020F063C021F064C022F099
:101B800065C023F066C024F067C025F05FC026F072
:101B90002CEC0EF01CC043F01DC044F02BEF0EF0F7
:101BA0002BEF0EF045C0D9FF46C0DAFFDECFF6FFBF
:101BB000DDCFF7FF0800F550250AD8A4E2EF0DF0BD
:101BC000E4EF0DF0FDEF0DF045C0D9FF46C0DAFFA0
:101BD000DE2A000EDD22000E026E250E016E43C0CD
:101BE00003F044C004F015EC1BF0000E446E010E2F
:101BF000436E2BEF0EF02BEF0EF045C0D9FF46C021
:101C0000DAFFDE2A000EDD22000E446E000E436E67
:101C10002BEF0EF02BEF0EF045C0D9FF46C0DAFFD8
:101C2000DECFF6FFDDCFF7FF0800F550016E026A48
:101C300043C003F044C004F015EC1BF045C0D9FFCD
:101C400046C0DAFFDE2A000EDD22000E446E010ED1
:101C5000436E2BEF0EF012000001CABF32EF0EF000
:101C600034EF0EF037EF0EF07C9237EF0EF0CABF74
:101C700044EF0EF0CA5106E1C905D8B042EF0EF0AC
:101C800044EF0EF04AEF0EF0000E346E010E336E8C
:101C90004EEF0EF0C9C033F0CAC034F0C7C035F003
:101CA000C8C036F07CA857EF0EF059EF0EF05FEF8A
:101CB0000EF0FE0E3526FF0E36225FEF0EF01EC030
:101CC00037F01FC038F020C039F021C03AF022C0F0
:101CD0003BF023C03CF024C03DF025C03EF0000E98
:101CE000406E1F0E3F6ED10E3F24D96E000E402075
:101CF000DA6E000EDF6E4FEF0FF03F06D8A0400601
:101D00000F0E3714416E426A42BE90EF0EF0425001
:101D100009E10A0E415CD8A090EF0EF092EF0EF0B0
:101D20009AEF0EF0570E4124416E000E4220426E93
:101D3000A0EF0EF0300E4124416E000E4220426EA4
:101D4000BF0E276EFF0E286E2650296E2A6A275076
:101D5000292628502A222A500AE11A0E295CD8A0E6
:101D6000B4EF0EF0B7EF0EF0010EB8EF0EF0000E6C
:101D70002F6E306AC7EF0EF026C001F0026A74ECD5
:101D80001FF001C02FF002C030F0C7EF0EF02F504F
:101D90003010D8B4CEEF0EF0D0EF0EF010EF0FF001
:101DA0009F0E276EFF0E286E200E4110296E000E2A
:101DB00042102A6E2750292628502A222A500AE14A
:101DC0001A0E295CD8A0E7EF0EF0EAEF0EF0010E34
:101DD000EBEF0EF0000E316E326AFBEF0EF041C0F9
:101DE00001F042C002F018EC1FF001C031F002C057
:101DF00032F0FBEF0EF031503210D8B402EF0FF09A
:101E000004EF0FF010EF0FF041C007F042C008F0F0
:101E1000F7EC1CF007C041F008C042F010EF0FF0E3
:101E2000D10E3F24D96E000E4020DA6E41C0DFFF94
:101E30003306D8A034063506D8A0360637C027F0BA
:101E400038C028F039C029F03AC02AF03BC02BF046
:101E50003CC02CF03DC02DF03EC02EF0050E3AEFF8
:101E60000FF0D8902E322D322C322B322A322932DA
:101E700028322732E82E31EF0FF027C037F028C084
:101E800038F029C039F02AC03AF02BC03BF02CC002
:101E90003CF02DC03DF02EC03EF04FEF0FF040BEA5
:101EA0005BEF0FF0405009E1020E3F5CD8A05BEF02
:101EB0000FF05DEF0FF091EF0FF037503810391041
:101EC0003A103B103C103D103E10D8A46AEF0FF0C2
:101ED0006CEF0FF07DEF0EF034BE79EF0FF0345061
:101EE00006E13304D8B077EF0FF079EF0FF07DEF14
:101EF0000EF036BE84EF0FF0365008E13504D8A05E
:101F000084EF0FF086EF0FF091EF0FF07CB28BEFC4
:101F10000FF08DEF0FF07DEF0EF091EF0FF091EFDE
:101F20000FF07CA896EF0FF098EF0FF0B0EF0FF0E6
:101F30003F06D8A04006D10E3F24D96E000E4020A7
:101F4000DA6E26C0DFFF3F06D8A04006D10E3F2440
:101F5000D96E000E4020DA6E300EDF6EB0EF0FF05B
:101F60001CC011F01DC012F0D10E3F24136E000EE4
:101F70004020146E35C015F036C016F0F1EC1BF0A1
:101F800011C01CF012C01DF0C6EF0FF012001EC0F1
:101F900036F01FC037F020C038F021C039F022C021
:101FA0003AF023C03BF024C03CF025C03DF03DBEDC
:101FB000DCEF0FF0DFEF0FF0010EE0EF0FF0000E9F
:101FC000346E356A34503510D8B4E9EF0FF0EBEFCA
:101FD0000FF0FDEF0FF03D1E3C1E3B1E3A1E391E5A
:101FE000381E371E366C000E3722382239223A222C
:101FF0003B223C223D22FDEF0FF00001CABF03EF60
:1020000010F005EF10F008EF10F07C9208EF10F0E0
:10201000CABF15EF10F0CA5106E1C905D8B013EFD9
:1020200010F015EF10F01BEF10F0000E316E010EE6
:10203000306E1FEF10F0C9C030F0CAC031F0C7C019
:1020400032F0C8C033F034503510D8A42AEF10F065
:102050002CEF10F035EF10F07CA431EF10F033EFDF
:1020600010F03AEF10F035EF10F03206D8A033063A
:102070003AEF10F0000E3F6E1F0E3E6ED10E3E2462
:10208000D96E000E3F20DA6E000EDF6EC6EF10F044
:102090003E06D8A03F06D10E3E24D96E000E3F204A
:1020A000DA6E36C001F037C002F038C003F039C034
:1020B00004F03AC005F03BC006F03CC007F03DC05C
:1020C00008F00A0E096E000E0A6E000E0B6E000E6E
:1020D0000C6E000E0D6E000E0E6E000E0F6E000EDA
:1020E000106EACEC17F001C026F002C027F003C060
:1020F00028F004C029F005C02AF006C02BF007C064
:102100002CF008C02DF026C013F028C014F0F6EC17
:102110001EF01350300FDF6E3006D8A031063206A5
:10212000D8A0330636C001F037C002F038C003F043
:1021300039C004F03AC005F03BC006F03CC007F0DF
:102140003DC008F00A0E096E000E0A6E000E0B6EFE
:10215000000E0C6E000E0D6E000E0E6E000E0F6E59
:10216000000E106EFFEC15F001C036F002C037F023
:1021700003C038F004C039F005C03AF006C03BF0A7
:1021800007C03CF008C03DF0C6EF10F03FBED1EFF5
:1021900010F03F5008E13E04D8A0D1EF10F0D3EF8B
:1021A00010F009EF11F036503710381039103A108E
:1021B0003B103C103D10D8A4E0EF10F0E2EF10F01F
:1021C00048EF10F031BEEFEF10F0315006E130046F
:1021D000D8B0EDEF10F0EFEF10F048EF10F033BE95
:1021E000FAEF10F0335008E13204D8A0FAEF10F003
:1021F000FCEF10F009EF11F07CB201EF11F003EFEA
:1022000011F048EF10F009EF11F009EF11F009EFAC
:1022100011F034503510D8A410EF11F012EF11F076
:102220001BEF11F07CA417EF11F019EF11F03DEF47
:1022300011F01BEF11F03E06D8A03F0634503510C8
:10224000D8A425EF11F027EF11F02DEF11F0000EBB
:102250002F6E2B0E2E6E33EF11F0000E2F6E2D0E03
:102260002E6E33EF11F0D10E3E24D96E000E3F20BA
:10227000DA6E2EC0DFFF3DEF11F01CC011F01DC063
:1022800012F0D10E3E24136E000E3F20146E32C0A9
:1022900015F033C016F0F1EC1BF011C01CF012C0A9
:1022A0001DF053EF11F012000600E1CFB9F0E2CFBC
:1022B000BAF0D9CFBBF0DACFBCF0F3CFBDF0F4CF9A
:1022C000BEF0F6CFBFF0F7CFC0F0F8CFC1F0F5CF3A
:1022D000C2F0F2A06EEF11F070EF11F0B0EF11F05C
:1022E00083A075EF11F077EF11F08EEF11F0000180
:1022F000D0BF84EF11F0D05109E1060ECF5DD8A018
:1023000084EF11F086EF11F08EEF11F0FB0ECF2766
:10231000FF0ED0238EEF11F08EEF11F083A293EF1A
:1023200011F095EF11F0ACEF11F00001D0BFA4EF68
:1023300011F0D05107E16E0ECF5DD8B0A2EF11F0D1
:10234000A4EF11F0ACEF11F0050ECF27000ED02353
:10235000ACEF11F0ACEF11F08C86F290B0EF11F011
:102360009EA0B5EF11F0B7EF11F0BBEF12F09E9009
:10237000000ECF6E000ECE6E8CA4C1EF11F0C3EF35
:1023800011F0C6EF11F08C94C9EF11F08C84C9EFF5
:1023900011F0140E01011D191E11D8A4D2EF11F075
:1023A000D4EF11F00EEF12F00001CF5101011F5DCB
:1023B0002051800A0001B66FD051800AB659D8A0CA
:1023C000E4EF11F0E6EF11F00EEF12F01E0ECF2544
:1023D000B66F000ED021B76F01011F510001B65D2D
:1023E000B751800AB86F01012051800A0001B85925
:1023F000D8A0FDEF11F0FFEF11F00EEF12F021C1A8
:1024000001F022C102F0FF0E046E0368B0EC1FF071
:1024100001C021F102C022F10EEF12F08C0E010179
:102420001D191E11D8A417EF12F019EF12F053EF77
:1024300012F00001CD5101011F5D2051800A000101
:10244000B66FCE51800AB659D8A029EF12F02BEF03
:1024500012F053EF12F01E0ECD25B66F000ECE21F6
:10246000B76F01011F510001B65DB751800AB86F07
:1024700001012051800A0001B859D8A042EF12F0A2
:1024800044EF12F053EF12F021C101F022C102F02B
:10249000FF0E046E0368B0EC1FF001C021F102C012
:1024A00022F153EF12F0010120BF5FEF12F0205133
:1024B00008E11F05D8A05FEF12F061EF12F07AEF8C
:1024C00012F00A0E1F250001B66F000E0101202137
:1024D0000001B76FB7BF76EF12F0B75109E1780E80
:1024E000B65DD8A076EF12F078EF12F089EF12F017
:1024F0007AEF12F023C101F024C102F0FF0E046E46
:102500000368B0EC1FF001C023F102C024F189EF91
:1025100012F021EE21F0DE5001011D27DD501E23B7
:1025200021EE23F0DE501F27DD5020231EBFA3EF36
:1025300012F01E5106E11D05D8B0A1EF12F0A3EF75
:1025400012F0B8EF12F0000E1E6F280E1D6F000E75
:10255000206F140E1F6F000E226F010E216F000EF0
:10256000246F010E236F3107D8A03207B8EF12F0A5
:102570008C96BBEF12F0F2A2C0EF12F0C2EF12F095
:10258000C9EF12F0F2925AEC1CF0C9EF12F0C9EF49
:1025900012F0C2C0F5FFC1C0F8FFC0C0F7FFBFC056
:1025A000F6FFBEC0F4FFBDC0F3FFBCC0DAFFBBC086
:1025B000D9FFBAC0E2FFB9C0E1FF7E92110000016D
:1025C000CABFE5EF12F0E7EF12F0EAEF12F07C92EB
:1025D000EAEF12F0CABFF7EF12F0CA5106E1C905DF
:1025E000D8B0F5EF12F0F7EF12F0FDEF12F0000E99
:1025F0002F6E010E2E6E01EF13F0C9C02EF0CAC06F
:102600002FF0C7C030F0C8C031F01EC032F01FC07C
:1026100033F020C034F021C035F022C036F023C0A2
:1026200037F024C038F025C039F0000E3B6E1F0E85
:102630003A6ED10E3A24D96E000E3B20DA6E000EAF
:10264000DF6E9BEF13F03A06D8A03B06D10E3A247A
:10265000D96E000E3B20DA6E32C001F033C002F0BA
:1026600034C003F035C004F036C005F037C006F0C2
:1026700038C007F039C008F00A0E096E000E0A6E65
:10268000000E0B6E000E0C6E000E0D6E000E0E6E28
:10269000000E0F6E000E106EA3EC1AF001C026F0B3
:1026A00002C027F003C028F004C029F005C02AF0BA
:1026B00006C02BF007C02CF008C02DF02650300FBC
:1026C000DF6E2E06D8A02F063006D8A0310632C005
:1026D00001F033C002F034C003F035C004F036C05E
:1026E00005F037C006F038C007F039C008F00A0E10
:1026F000096E000E0A6E000E0B6E000E0C6E000EC0
:102700000D6E000E0E6E000E0F6E000E106EA1EC20
:1027100019F001C032F002C033F003C034F004C03D
:1027200035F005C036F006C037F007C038F008C0F5
:1027300039F09BEF13F03A503B10D8B4A2EF13F0EE
:10274000A4EF13F0DAEF13F03250331034103510D9
:102750003610371038103910D8A4B1EF13F0B3EF9A
:1027600013F023EF13F02FBEC0EF13F02F5006E14C
:102770002E04D8B0BEEF13F0C0EF13F023EF13F028
:1027800031BECBEF13F0315008E13004D8A0CBEFCD
:1027900013F0CDEF13F0DAEF13F07CB2D2EF13F0B9
:1027A000D4EF13F023EF13F0DAEF13F0DAEF13F0B6
:1027B000DAEF13F01CC011F01DC012F0D10E3A2454
:1027C000136E000E3B20146E30C015F031C016F0B1
:1027D000F1EC1BF011C01CF012C01DF0F0EF13F073
:1027E00012000001CABFF7EF13F0F9EF13F0FCEF8E
:1027F00013F07C92FCEF13F0CABF09EF14F0CA513A
:1028000006E1C905D8B007EF14F009EF14F00FEF97
:1028100014F0000E2F6E010E2E6E13EF14F0C9C0CF
:102820002EF0CAC02FF0C7C032F0C8C033F01EC0AF
:1028300034F01FC035F020C036F021C037F022C080
:1028400038F023C039F024C03AF025C03BF0000E28
:102850003D6E1F0E3C6ED10E3C24D96E000E3D2005
:10286000DA6E000EDF6E000E316E000E306E80EFFD
:1028700014F03C06D8A03D06070E3414306E316AC1
:10288000D10E3C24D96E000E3D20DA6E3050300F50
:10289000DF6E2E06D8A02F063206D8A0330634C02D
:1028A00026F035C027F036C028F037C029F038C0F0
:1028B0002AF039C02BF03AC02CF03BC02DF0040EAA
:1028C0006BEF14F0D8902D322C322B322A32293271
:1028D000283227322632E82E62EF14F026C034F078
:1028E00027C035F028C036F029C037F02AC038F0AC
:1028F0002BC039F02CC03AF02DC03BF080EF14F023
:102900003DBE8BEF14F03D5008E13C04D8A08BEFA6
:1029100014F08DEF14F0C1EF14F034503510361070
:102920003710381039103A103B10D8A49AEF14F031
:102930009CEF14F039EF14F02FBEA9EF14F02F50D4
:1029400006E12E04D8B0A7EF14F0A9EF14F039EF88
:1029500014F033BEB4EF14F0335008E13204D8A0C1
:10296000B4EF14F0B6EF14F0C1EF14F07CB2BBEF8B
:1029700014F0BDEF14F039EF14F0C1EF14F0C1EF13
:1029800014F07CA8C6EF14F0C8EF14F0E1EF14F0D7
:1029900030503110D8B4CFEF14F0D1EF14F0E1EF94
:1029A00014F03C06D8A03D06D10E3C24D96E000E92
:1029B0003D20DA6E300EDF6E3206D8A03306E1EF2E
:1029C00014F01CC011F01DC012F0D10E3C24136E87
:1029D000000E3D20146E32C015F033C016F0F1EC3D
:1029E0001BF011C01CF012C01DF0F7EF14F0120024
:1029F000000E166E000E156E000E0F6E000E0E6E9F
:102A000006EF15F0084A092A06EF15F0010E146EBC
:102A100008C0F6FF09C0F7FF0800F550200AD8B437
:102A200014EF15F016EF15F035EF15F0F70E0A6EEE
:102A3000FF0E0B6E08C0F6FF09C0F7FF0800F55047
:102A40000C6E0D6A0A500C260B500D220D5009E138
:102A5000050E0C5CD8A02FEF15F031EF15F035EF17
:102A600015F0000E146E35EF15F014C010F0116A59
:102A70004AEF15F008C0F6FF09C0F7FF0800F5504F
:102A8000016E026A30EC1EF001C010F002C011F0BD
:102A90004AEF15F010501110D8A451EF15F053EF74
:102AA00015F002EF15F061EF15F061EF15F0000E73
:102AB0000F6E010E0E6E5DEF15F0084A092AA5EFA4
:102AC00015F008C0F6FF09C0F7FF0800F5500A6EC0
:102AD0000B6A0B50000AD8B470EF15F0A5EF15F093
:102AE0000A502B0AD8B45DEF15F0060AD8B457EF98
:102AF00015F0A5EF15F0A5EF15F0D00E0A6EFF0E3C
:102B00000B6E08C0F6FF09C0F7FF0800F5500C6E09
:102B10000D6A0A500C260B500D220C1E0D1E0C4A7D
:102B20000D2A15C001F016C002F0000E046E0A0E48
:102B3000036EB0EC1FF00C500124156E0D500220F6
:102B4000166E084A092AA5EF15F0D00E0A6EFF0E80
:102B50000B6E08C0F6FF09C0F7FF0800F5500C6EB9
:102B60000D6A0A500C260B500D220D500AE10A0E78
:102B70000C5CD8A0BEEF15F0C1EF15F0010EC2EF4E
:102B800015F0000E126E136AD6EF15F008C0F6FFAE
:102B900009C0F7FF0800F550016E026A92EC1FF0C1
:102BA00001C012F002C013F0D6EF15F0125013104E
:102BB000D8A4DDEF15F0DFEF15F07DEF15F0E1EFB4
:102BC00015F00E500F10D8A4E8EF15F0EAEF15F04D
:102BD000F8EF15F015C00AF016C00BF00A1E0B1E18
:102BE0000A4A0B2A0AC008F00BC009F0FEEF15F0E4
:102BF00015C008F016C009F0FEEF15F01200000E27
:102C0000126E10BE08EF16F006EF16F01CEF16F06D
:102C1000101E0F1E0E1E0D1E0C1E0B1E0A1E096C12
:102C2000000E0A220B220C220D220E220F2210224D
:102C3000010E126E1CEF16F008BE23EF16F021EF06
:102C400016F037EF16F0081E071E061E051E041E9E
:102C5000031E021E016C000E022203220422052222
:102C6000062207220822010E121A37EF16F020EE74
:102C700013F0070EDE6AE806FDE209500A100B1099
:102C80000C100D100E100F101010D8B44AEF16F0E3
:102C90004CEF16F0AAEF16F0010E116E5CEF16F075
:102CA000D89009360A360B360C360D360E360F36EE
:102CB0001036112A5CEF16F010AE61EF16F063EFDC
:102CC00016F050EF16F067EF16F067EF16F0D89099
:102CD00013361436153616361736183619361A3690
:102CE0000950015C0A5002580B5003580C5004580C
:102CF0000D5005580E5006580F50075810500858E0
:102D0000D8A085EF16F087EF16F09AEF16F009506D
:102D1000015E0A50025A0B50035A0C50045A0D50CF
:102D2000055A0E50065A0F50075A1050085A138071
:102D30009AEF16F0D89010320F320E320D320C325C
:102D40000B320A320932112E67EF16F0AAEF16F095
:102D5000AAEF16F01250D8B4B0EF16F0B2EF16F09A
:102D6000C4EF16F01A1E191E181E171E161E151E69
:102D7000141E136C000E142215221622172218227C
:102D800019221A22C4EF16F013C001F014C002F089
:102D900015C003F016C004F017C005F018C006F007
:102DA00019C007F01AC008F0D6EF16F0120020EE96
:102DB000F1F010EE0FF0060EDBCFE3FFE806FCE2C9
:102DC0000CC01AF00DC01BF01A501B10D8A4EBEF6A
:102DD00016F0EDEF16F0F3EF16F00F0E1A6E000E70
:102DE0001B6EF3EF16F01AC001F01BC002F05DEC91
:102DF0001EF001C01EF002C01FF0C9C01CF0CAC006
:102E00001DF01DBE06EF17F008EF17F01FEF17F0CB
:102E10001E501C5C1D50800A0E6E1F50800A0E58FA
:102E2000D8A015EF17F017EF17F01BEF17F01FEFF3
:102E300017F01FEF17F01CC01EF01DC01FF01EC0C2
:102E40001CF01FC01DF0C7C018F0C8C019F07CB03E
:102E50002CEF17F02EEF17F053EF17F040EF17F0AD
:102E600040EF17F0000E026E200E016E0AC003F054
:102E70000BC004F015EC1BF01E4A1F2A40EF17F0A0
:102E800018501E5C1F50800A0E6E1950800A0E5892
:102E9000D8A04DEF17F04FEF17F032EF17F053EFC8
:102EA00017F053EF17F0000E176E000E166E6EEF50
:102EB00017F01AC0D9FF1BC0DAFFDF500E6E0E509C
:102EC000016E026A0AC003F00BC004F015EC1BF09F
:102ED0001A4A1B2A164A172A6EEF17F01C50165C66
:102EE0001750800A0E6E1D50800A0E58D8A07BEF36
:102EF00017F07DEF17F059EF17F07CA082EF17F075
:102F000084EF17F0A7EF17F096EF17F096EF17F092
:102F1000000E026E200E016E0AC003F00BC004F01A
:102F200015EC1BF01E4A1F2A96EF17F018501E5C76
:102F30001F50800A0E6E1950800A0E58D8A0A3EFB9
:102F400017F0A5EF17F088EF17F0A7EF17F01EC0E6
:102F50000AF01FC00BF01200000E126E08BEB5EF93
:102F600017F0B3EF17F0C9EF17F0081E071E061E83
:102F7000051E041E031E021E016C000E0222032207
:102F800004220522062207220822010E126EC9EF32
:102F900017F010BED0EF17F0CEEF17F0E2EF17F0FA
:102FA000101E0F1E0E1E0D1E0C1E0B1E0A1E096C7F
:102FB000000E0A220B220C220D220E220F221022BA
:102FC000E2EF17F009500A100B100C100D100E1044
:102FD0000F101010D8B4EFEF17F0F1EF17F045EF26
:102FE00018F0010E116E01EF18F0D89009360A366C
:102FF0000B360C360D360E360F361036112A01EF11
:1030000018F010AE06EF18F008EF18F0F5EF17F013
:103010000CEF18F00CEF18F00950015C0A50025840
:103020000B5003580C5004580D5005580E500658BC
:103030000F50075810500858D8A021EF18F023EF70
:1030400018F035EF18F00950015E0A50025A0B5083
:10305000035A0C50045A0D50055A0E50065A0F5080
:10306000075A1050085A35EF18F0D89010320F3226
:103070000E320D320C320B320A320932112E0CEFA5
:1030800018F045EF18F045EF18F01250D8B44BEF98
:1030900018F04DEF18F05FEF18F0081E071E061E1F
:1030A000051E041E031E021E016C000E02220322D6
:1030B000042205220622072208225FEF18F001C031
:1030C00001F002C002F003C003F004C004F005C028
:1030D00005F006C006F007C007F008C008F071EF61
:1030E00018F01200000E0101146F12BF7CEF18F0EF
:1030F0007AEF18F088EF18F0121F111F101F0F6DD4
:10310000000E102311231223010E146F88EF18F004
:103110000EBF8FEF18F08DEF18F09BEF18F00E1F19
:103120000D1F0C1F0B6D000E0C230D230E23010E23
:10313000141B9BEF18F0000E156F000E166F000E9B
:10314000176F000E186F0F51101111111211D8B412
:10315000ACEF18F0AEEF18F0F0EF18F0010E136FAF
:10316000BAEF18F0D8900F37103711371237132BEA
:10317000BAEF18F012AFBFEF18F0C1EF18F0B2EFCE
:1031800018F0C5EF18F0C5EF18F0D89015371637BE
:10319000173718370F510B5D10510C5911510D593C
:1031A00012510E59D8A0D7EF18F0D9EF18F0E4EF6C
:1031B00018F00F510B5F10510C5B11510D5B125148
:1031C0000E5B1581E4EF18F0D890123311331033F1
:1031D0000F33132FC5EF18F0F0EF18F0F0EF18F0E1
:1031E0001451D8B4F6EF18F0F8EF18F002EF19F018
:1031F000181F171F161F156D000E162317231823EF
:1032000002EF19F015C10BF116C10CF117C10DF148
:1032100018C10EF10CEF19F01200800E735CD8A0EB
:1032200014EF19F016EF19F021EF19F0000E00015C
:10323000C46F4B0EC36F70687168A0EF19F0A0EFF8
:1032400019F070C084F071C085F0735009E1020E6E
:10325000725CD8A02EEF19F030EF19F03DEF19F0A5
:10326000FF0E72240001886FFF0E7320896F000E1D
:10327000876F000E866F48EF19F0000E0001896F0E
:10328000010E886F000E876F010E866F48EF19F0F0
:10329000840E686E000E696E74C06AF075C06BF0C3
:1032A00076C06CF077C06DF06CEC1DF068C082F0F9
:1032B00069C083F072507310D8B461EF19F063EFF6
:1032C00019F09AEF19F0000183BF69EF19F06BEF65
:1032D00019F09AEF19F0FF0E786EFF0E796E72C03A
:1032E0007AF073C07BF078507A2679507B227A503E
:1032F000825D7B508359D8A080EF19F082EF19F0DE
:103300008AEF19F0FF0E7224806FFF0E7320816F19
:1033100090EF19F082C080F083C081F090EF19F037
:1033200080517024D96E81517120DA6E000EDF6EEB
:103330009AEF19F082C070F083C071F0A0EF19F01D
:10334000120020EE11F0070EDE6AE806FDE20950D9
:103350000A100B100C100D100E100F101010D8B416
:10336000B4EF19F0B6EF19F012EF1AF0010E196E62
:10337000C6EF19F0D89009360A360B360C360D36E2
:103380000E360F361036192AC6EF19F010AECBEFF5
:1033900019F0CDEF19F0BAEF19F0D1EF19F0D1EF24
:1033A00019F0D890113612361336143615361636F3
:1033B000173618360950015C0A5002580B50035852
:1033C0000C5004580D5005580E5006580F50075811
:1033D00010500858D8A0EFEF19F0F1EF19F004EFF2
:1033E0001AF00950015E0A50025A0B50035A0C5051
:1033F000045A0D50055A0E50065A0F50075A1050D5
:10340000085A118004EF1AF0D89010320F320E32A1
:103410000D320C320B320A320932192ED1EF19F06B
:1034200012EF1AF011C001F012C002F013C003F045
:1034300014C004F015C005F016C006F017C007F060
:1034400018C008F0120001C009F002C00AF003C061
:103450000BF004C00CF00506D8A00606052806E10E
:103460000628D8A436EF1AF038EF1AF04BEF1AF00E
:10347000000E026E000E016EA2EF1AF0A2EF1AF01B
:103480004BEF1AF0094A0A2A0B4A0C2A0506D8A063
:1034900006064BEF1AF009C0F6FF0AC0F7FF080056
:1034A000F5500009D8B457EF1AF059EF1AF089EF28
:1034B0001AF00BC0F6FF0CC0F7FF0800F55000092A
:1034C000D8B465EF1AF067EF1AF089EF1AF00550DB
:1034D0000610D8B46EEF1AF070EF1AF089EF1AF0F8
:1034E00009C0F6FF0AC0F7FF0800F5CF07F00BC0D0
:1034F000F6FF0CC0F7FF0800F5500718D8B483EFAB
:103500001AF085EF1AF042EF1AF089EF1AF089EFFE
:103510001AF00BC0F6FF0CC0F7FF0800F550076E5D
:10352000086A071E081E074A082A09C0F6FF0AC0D3
:10353000F7FF0800F5500724016E000E0820026E08
:10354000A2EF1AF0120009500A100B100C100D1007
:103550000E100F101010D8B4B0EF1AF0B2EF1AF02E
:1035600004EF1BF0010E116EC2EF1AF0D89009366D
:103570000A360B360C360D360E360F361036112A3B
:10358000C2EF1AF010AEC7EF1AF0C9EF1AF0B6EF9B
:103590001AF0CDEF1AF0CDEF1AF00950015C0A5085
:1035A00002580B5003580C5004580D5005580E503B
:1035B00006580F50075810500858D8A0E2EF1AF0DC
:1035C000E4EF1AF0F6EF1AF00950015E0A50025AC1
:1035D0000B50035A0C50045A0D50055A0E50065AFF
:1035E0000F50075A1050085AF6EF1AF0D8901032C0
:1035F0000F320E320D320C320B320A320932112EDA
:10360000CDEF1AF004EF1BF001C001F002C002F090
:1036100003C003F004C004F005C005F006C006F0C6
:1036200007C007F008C008F0120003500410D8B417
:103630001CEF1BF01EEF1BF029EF1BF003500410D2
:10364000D8A425EF1BF027EF1BF02EEF1BF029EF7E
:103650001BF0015001EC20F083EF1BF020EE04F092
:103660000350D9260450DA22DE50DE10D8B43BEFE6
:103670001BF03DEF1BF05AEF1BF020EE04F003505F
:10368000D9260450DA2210EE02F00350E12604504D
:10369000E222DE50E65CE650800A096EDE50800AC7
:1036A0000958D8B056EF1BF058EF1BF083EF1BF012
:1036B0005AEF1BF020EE02F00350D9260450DA2214
:1036C000DECF05F0DDCF06F003C0D9FF04C0DAFF7E
:1036D000DECF07F0DDCF08F005500724D96E065085
:1036E0000820DA6E01C0DFFF20EE02F00350D92679
:1036F0000450DA22DE2A000EDD2283EF1BF083EF76
:103700001BF083EF1BF01200000E0101056F01BFDB
:103710008EEF1BF08CEF1BF096EF1BF0006D011F7E
:10372000D8B0012B010E056F96EF1BF003BF9DEF84
:103730001BF09BEF1BF0A3EF1BF0026D031FD8B033
:10374000032BA3EF1BF002510311D8B4AAEF1BF017
:10375000ACEF1BF0DCEF1BF0010E046FB6EF1BF0BB
:10376000D89002370337042BB6EF1BF003AFBBEF43
:103770001BF0BDEF1BF0B0EF1BF0C1EF1BF0C1EF72
:103780001BF00251005D03510159D8A0CAEF1BF094
:10379000CCEF1BF0D2EF1BF00251005F0351015B35
:1037A000D2EF1BF0D89003330233042FC1EF1BF08C
:1037B000DCEF1BF0DCEF1BF00551D8B4E2EF1BF09F
:1037C000E4EF1BF0EAEF1BF0006D011FD8B0012BF6
:1037D000EAEF1BF000C100F101C101F1F0EF1BF0B5
:1037E00012007CA0F6EF1BF0F8EF1BF004EF1CF0CA
:1037F00013C00AF014C00BF011C00CF012C00DF091
:10380000ACEC1EF004EF1CF016BE09EF1CF00BEF41
:103810001CF011EF1CF015C01AF016C01BF015EFCC
:103820001CF0000E1B6E000E1A6E000E196E000EBC
:10383000186E29EF1CF0000E026E200E016E11C0F2
:1038400003F012C004F015EC1BF0184A192A29EFF6
:103850001CF01A50185C1950800A176E1B50800A11
:103860001758D8A036EF1CF038EF1CF01BEF1CF0F7
:103870007CB03DEF1CF03FEF1CF04BEF1CF013C091
:103880000AF014C00BF011C00CF012C00DF0ACEC3B
:103890001EF04BEF1CF013C001F014C002F05DEC01
:1038A0001EF01A500124116E1B500220126E59EFA7
:1038B0001CF0120036EC1DF0980E00018A6F000E0D
:1038C0008B6F000E8D6F0A0E8C6F010E8E6F060EC1
:1038D0008F6F1DC190F01EC191F01FC192F020C1E9
:1038E00093F038EC1FF0980E026E000E036ED2ECCF
:1038F0001EF036EC1DF036EC1DF0A20E00018A6FB2
:10390000000E8B6F000E8D6F0A0E8C6F0A0E8E6F7D
:10391000060E8F6FCFC090F0D0C091F038EC1FF042
:10392000A20E026E000E036ED2EC1EF036EC1DF0FD
:1039300036EC1DF0AC0E00018A6F000E8B6F000E8E
:103940008D6F0A0E8C6F100E8E6F060E8F6FCDC0AE
:1039500090F0CEC091F038EC1FF0AC0E026E000E6D
:10396000036ED2EC1EF036EC1DF0120093689580C9
:10397000958295949596000E946E000E01011E6F2F
:10398000280E1D6F000E206F140E1F6F000E000119
:10399000D06F140ECF6F000ECE6F140ECD6F000ED1
:1039A0000101226F010E216F000E246F010E236FA3
:1039B00001EC1EF0F7EC1FF0C5EC1FF0E0EF1CF07F
:1039C0008C9631C18BFF010131513211D8A4EBEF3C
:1039D0001CF0EDEF1CF0E0EF1CF0F5EF1CF0F5EF44
:1039E0001CF0E0EF1CF0E0EF1CF03CEF00F09F0E4D
:1039F000096EFF0E0A6E07C00BF008C00CF00950EC
:103A00000B260A500C220C500AE11A0E0B5CD8A0AF
:103A10000CEF1DF00FEF1DF0010E10EF1DF0000E6A
:103A20000D6E0E6A20EF1DF007C001F008C002F015
:103A300056EC1FF001C00DF002C00EF020EF1DF09B
:103A40000D500E10D8B427EF1DF029EF1DF031EF07
:103A50001DF05F0E0714076E086A35EF1DF035EF95
:103A60001DF007C007F008C008F01200000E026E3B
:103A7000000E016E02BE46EF1DF0025009E10A0E73
:103A8000015CD8A046EF1DF048EF1DF04CEF1DF093
:103A900066EF1DF066EF1DF0270E0124D96E010EB2
:103AA0000220DA6E000EDF6E014A022A02BE62EFC9
:103AB0001DF0025009E10A0E015CD8A062EF1DF072
:103AC00064EF1DF04CEF1DF066EF1DF0000E0101DC
:103AD000266F000E256F12006AC06EF06BC06FF08B
:103AE000000E0001C66F000EC56F8CEF1DF068C0A0
:103AF00043F069C044F06E0E456E000E466E6CC019
:103B000047F06DC048F024EC03F043500001C52796
:103B10004450C6238CEF1DF06EC0F6FF6FC0F7FF58
:103B20000800F5500009D8A498EF1DF09AEF1DF099
:103B300077EF1DF0C5C068F0C6C069F01200FF0E37
:103B4000F66E3F0EF76E000EF86E0900F5CF31F1FC
:103B50000900F5CF32F1F80EF66E3F0EF76E000E4B
:103B6000F86E00EEF1F010EE07F00900F5CFEEFF71
:103B7000E550E150FAE101EE1DF0140EEE6AE806A0
:103B8000FDE100EEC3F02E0EEE6AE806FDE17D6A6F
:103B90007C6A7E907E92000EF86E0001B6EF1CF0FB
:103BA0000001C751C811D8A4D8EF1DF0DAEF1DF0FD
:103BB000E0EF1DF0C7C01FF0C8C020F0E8EF1DF017
:103BC000FF0EC7251F6EFF0EC821206EE8EF1DF007
:103BD0001EC0D1F0000ED26F1CC011F01DC012F03B
:103BE000D10E136E000E146E1FC015F020C016F01B
:103BF000F1EC1BF011C01CF012C01DF000EF1EF024
:103C00001200948C948EAC98B886AC84820E01011C
:103C1000196F060E1A6F000E1B6F000E1C6F19C174
:103C2000AFFF19C10BF11AC10CF11BC10DF11CC181
:103C30000EF1000E0F6F010E106F000E116F000ECF
:103C4000126F72EC18F001010B51B06EAB8E9E88B2
:103C50009E9AAC8AAB889D989F989D8A9F9A1200E5
:103C6000010E076E200E01180210D8B43AEF1EF0B4
:103C70003CEF1EF057EF1EF0F70E036EFF0E046EC2
:103C800001C005F002C006F00350052604500622CC
:103C9000065009E1050E055CD8A051EF1EF053EF68
:103CA0001EF057EF1EF0000E076E57EF1EF007C014
:103CB00001F0026A5CEF1EF0120001C005F002C0C4
:103CC00006F067EF1EF0014A022A67EF1EF001C0FE
:103CD000D9FF02C0DAFFDF50D8A471EF1EF073EFF6
:103CE0001EF063EF1EF075EF1EF005C003F006C076
:103CF00004F0031E041E034A042A01500324016E2B
:103D000002500420026E85EF1EF01200270E010102
:103D10002525D96E010E2621DA6EAECFDFFF270EE4
:103D20002525D96E010E2621DA6EDF50D8EC1FF062
:103D30000101254B262B25C100F126C101F1000E02
:103D4000036F0A0E026F84EC1BF000C125F101C164
:103D500026F1ABEF1EF01200000E106E000E0F6E7B
:103D6000BFEF1EF00EC001F0026A0CC003F00DC0E0
:103D700004F015EC1BF00F4A102ABFEF1EF00F5095
:103D80000A24D96E10500B20DA6EDF500E6E0E50E2
:103D9000D8A4CDEF1EF0CFEF1EF0B2EF1EF0D1EFA2
:103DA0001EF01200000E056E000E046EE5EF1EF010
:103DB00004500224D96E05500320DA6EDF50E8EC7F
:103DC0001FF0044A052AE5EF1EF004500224D96EC4
:103DD00005500320DA6EDF50D8A4F1EF1EF0F3EFA8
:103DE0001EF0D8EF1EF0F5EF1EF0120014BE03EF28
:103DF0001FF0145006E11304D8B001EF1FF003EFD9
:103E00001FF011EF1FF013C015F014C016F0151EAF
:103E1000161E154A162A15C013F016C014F017EF17
:103E20001FF013C013F014C014F017EF1FF01200AE
:103E30009F0E036EFF0E046E200E0110056E000E25
:103E40000210066E035005260450062206500AE1B1
:103E50001A0E055CD8A02FEF1FF032EF1FF0010EF5
:103E600033EF1FF0000E016E026A37EF1FF01200F1
:103E7000900E0001966F000E976F8AC070F08BC095
:103E800071F08CC072F08DC073F08EC074F08FC072
:103E900075F0960E766E000E776E0DEC19F070C010
:103EA00094F071C095F055EF1FF012009F0E036E55
:103EB000FF0E046E01C005F002C006F00350052697
:103EC0000450062206500AE11A0E055CD8A06BEFDA
:103ED0001FF06EEF1FF0010E6FEF1FF0000E016E6E
:103EE000026A73EF1FF01200BF0E036EFF0E046E26
:103EF00001C005F002C006F003500526045006225A
:103F000006500AE11A0E055CD8A089EF1FF08CEF6D
:103F10001FF0010E8DEF1FF0000E016E026A91EF8F
:103F20001FF01200D00E036EFF0E046E01C005F0EC
:103F300002C006F0035005260450062206500AE18E
:103F40000A0E055CD8A0A7EF1FF0AAEF1FF0010E24
:103F5000ABEF1FF0000E016E026AAFEF1FF0120010
:103F600001500302F3CF05F0F4CF06F00150040234
:103F7000F350062602500302F350062605C001F056
:103F800006C002F0C4EF1FF01200D08EF28EF28C49
:103F90009E909D809F80CD8ECD80CD92CD50CF0BB9
:103FA0002009CD6EF290F286F288F292F19C120016
:103FB0000101006FDCEF1FF0ACA2E1EF1FF0E3EFB7
:103FC0001FF0DCEF1FF0E5EF1FF000C1ADFF1200A6
:103FD000016EEBEF1FF0ACA2F0EF1FF0F2EF1FF05D
:103FE000EBEF1FF0F4EF1FF001C0ADFF1200D38C18
:103FF000D38AD3889B8C1200286E756C6C290003C1
:0140000000BF
:024002001200AA
:020000040020DA
:08000000FFFFFFFFFFFFFFFF00
:020000040030CA
:0E000000FF881F00FF8181FF0FC00FE00F403F
:00000001FF
